:100000000C94EB000C9413010C9413010C94130149
:100010000C9413010C9413010C9413010C94130110
:100020000C9413010C9413010C94F30A0C94650BBB
:100030000C9413010C9413010C9413010C941301F0
:100040000C9413010C9413010C9413010C941301E0
:100050000C9413010C9413010C9413010C94B20F23
:100060000C9413010C949D130C9477130C941301AE
:100070000C9413010C9413010C9413010C941301B0
:100080000C94FC0F0C9413010C9413010C941301A9
:100090000C9413010C9413010C9413010C94130190
:1000A0000C9413010C9413010C941301040F070F0B
:1000B000F60EFA0EFE0E280F280F280F0B0F0F0F4B
:1000C000130F190F1D0F280F230F0706050401003A
:1000D000080A0B0C0D09080B0002020201000904BA
:1000E00000000102020000052400100105240101A6
:1000F00001042402060524060001070581031000FF
:100100004009040100020A00000007050202400045
:10011000000705830240000004030904417264756E
:10012000696E6F204C4C430041726475696E6F209C
:100130004D6963726F00120100020000004041230C
:10014000370000010102030112010002EF02014029
:1001500041233700000101020301030000000024D5
:100160000027002A002D0030000000000025002894
:10017000002B002E003100040404040403040502D3
:100180000202020403020202020606060606060432
:1001900004020202040404080201104080401020FE
:1001A000408040800802040180402010020110803D
:1001B00010204040200000000200090F000003044E
:1001C00001000C0000000000000000000000000022
:1001D00000000000C11411241FBECFEFDAE0DEBF23
:1001E000CDBF13E0A0E0B1E0ECEFFEE202C005906D
:1001F0000D92A432B107D9F725E0A4E2B3E001C023
:100200001D92AA32B207E1F710E0CBEED0E004C0B5
:100210002197FE010E941717CA3ED107C9F70E9415
:1002200093150C947C170C940000FC01918D228D89
:10023000892F90E0805C9F4F821B91098F739927D3
:10024000089580E090E0892B29F00E942B0E811107
:100250000C94000008951F93CF93DF93162FFC0199
:10026000C081D181209761F0E881F9810488F58906
:10027000E02D612FCE0109950A80DB81C02DF2CFE0
:10028000DF91CF911F9108951F93CF93DF93162F86
:10029000FC01C081D181209761F0E881F981028859
:1002A000F389E02D612FCE0109950A80DB81C02DF5
:1002B000F2CFDF91CF911F910895CF93DF93FC018F
:1002C000C081D181209759F0E881F9810484F585B6
:1002D000E02DCE0109950A80DB81C02DF3CFDF919F
:1002E000CF910895FC01A485B5851A964D915C9136
:1002F0001B9764039001659F300D1124318B208B77
:10030000319521953109338B228B0895CF93DF935B
:10031000EC01EC85FD8524853585319521953109E4
:10032000DB010E941D172AE530E040E050E00E940A
:10033000F816398B288B3B8B2A8BDF91CF91089550
:10034000CF92DF92EF92FF920F931F93CF93DF93A1
:100350001F92CDB7DEB76C01DC0117962C91179771
:100360001496ED91FC9115971696FC90909135049A
:10037000809136042223D1F0E080092F182F011537
:10038000110571F0D801ED91FC910684F785E02DFF
:100390004E2D6F2DC8010995F80102811381EFCF11
:1003A000D60115961C921E92149775C02081F212E8
:1003B00015C0F60115821482092F182F0115110599
:1003C00009F469C0D801ED91FC910284F385E02D18
:1003D000C8010995F80102811381F0CFEF0DF11DDD
:1003E0002181092F182F0115110579F0D801ED9100
:1003F000FC910280F381E02D622FC80129830995C9
:10040000F801028113812981EECF2230E1F058F406
:10041000213009F040C0D601ED91FC910480F581B6
:10042000E02D61E02DC0233021F12430A1F5D6016B
:10043000ED91FC91119712966D917C9113977195A6
:100440006195710908C0D601ED91FC911197129642
:100450006D917C9113970280F381E02DC6010F907E
:10046000DF91CF911F910F91FF90EF90DF90CF9090
:100470000994D601ED91FC910480F581E02D6FEF98
:10048000C6010F90DF91CF911F910F91FF90EF90D8
:10049000DF90CF9009940F90DF91CF911F910F9132
:1004A000FF90EF90DF90CF9008958F929F92AF9240
:1004B000BF92EF92FF920F931F93CF93DC01909620
:1004C000ED91FC919197E081E23108F0E251F0E08A
:1004D000E653FF4FE49180917B00E3FB222720F954
:1004E00030E095E0220F331F9A95E1F78F7D282B9E
:1004F00020937B00E770E064E0937C0080917A00B9
:10050000806480937A0080917A0086FDFCCF2091F0
:1005100078008091790030E0382B2F3D63E036077A
:1005200024F0A9014E5D534004C04EED53E0421B40
:10053000530B9096ED91FC91919782819381B90133
:10054000681B790BCB0177FF03C0919581959109C9
:10055000841795071CF4AC01C1E001C0C0E08481A0
:100560009581B901681B790BCB0177FF03C0919589
:10057000819591098417950714F4AC01C2E0868136
:100580009781B901681B790BCB0177FF03C0919567
:10059000819591098417950714F4AC01C3E0808517
:1005A0009185B901681B790BCB0177FF03C0919549
:1005B000819591098417950714F4AC01C4E08285F4
:1005C0009385B901681B790BCB0177FF03C0919527
:1005D000819591098417950714F4AC01C5E08485D1
:1005E0009585281B390B37FF03C0319521953109BB
:1005F000241735070CF4C6E092966C919297C617B3
:1006000009F469C08D01662391F18FEF860F7D019A
:1006100074E0879FE00CF11C1124D70114968D9093
:100620009D90AD90BC90179781149104A104B104E2
:10063000F1F0F801848D958DA68DB78D88199909F3
:10064000AA09BB098F319105A105B10580F0883E4B
:100650009340A105B10520F485E394E00E94440194
:10066000D70114961D921D921D921C921797C111CD
:1006700003C0F801C2A32FC08FEF8C0F9801F4E0E4
:100680008F9F200D311D1124F90184819581A68150
:10069000B781892B8A2B8B2B61F7F801848D958D7F
:1006A000A68DB78DF90184839583A683B783E090E7
:1006B0003504F0903604E114F104D9F2D701ED913C
:1006C000FC910088F189E02D6C2FC7010995F70195
:1006D000E280F380F0CFCF911F910F91FF90EF90C8
:1006E000BF90AF909F908F900895EF92FF921F93CD
:1006F000CF93DF93EC01CB01BA0128EE33E040E069
:1007000050E00E94D6162C8F3D8F4E8F5F8F7E015A
:1007100011E0F701448155816681778141155105CA
:1007200061057105B9F08C8D9D8DAE8DBF8D841BDB
:10073000950BA60BB70B893E9340A105B10550F070
:10074000612F85E394E00E942B01F701148215824A
:1007500016821782F4E0EF0EF11C1F5F1730C9F606
:10076000E881F981008CF18DE02DCE01DF91CF91F0
:100770001F91FF90EF9009941092D00385E394E0CD
:100780000C945D01089508950895089508950895BD
:10079000089508950895089508950895FC01962FE9
:1007A000642F9330A9F028F4913041F0923059F041
:1007B0000895943091F09530A9F008950480F58162
:1007C000E02D808113C00480F581E02D81810EC071
:1007D0000480F581E02D828109C00480F581E02D3F
:1007E000838104C00480F581E02D84810C94D90EAE
:1007F0006150643030F4E62FF0E0EE54FE4F60813B
:1008000001C060E040E00C94CE036150643030F4ED
:10081000E62FF0E0EE54FE4F608101C060E041E061
:100820000C94CE0340E00C94CE0340E00C94CE0335
:1008300041E00C94CE03CF93DF93EC01EC81FD817A
:1008400060E080810E94D90EEC81FD8160E08181B1
:100850000E94D90EEC81FD8160E082810E94D90E58
:10086000EC81FD8160E083810E94D90EEC81FD81E5
:1008700060E08481DF91CF910C94D90E0F931F9388
:10088000CF93DF938C01C62F6170DC011C96ED9134
:10089000FC911D9780810E94D90ED0E0BE01759514
:1008A00067956170D8011C96ED91FC911D9781812F
:1008B0000E94D90EBE017595679575956795617013
:1008C000D8011C96ED91FC911D9782810E94D90E52
:1008D00023E0D595C7952A95E1F76C2F6170D80173
:1008E0001C96ED91FC911D978381DF91CF911F9113
:1008F0000F910C94D90E0F931F93CF93DF938C011C
:10090000C62F6170DC011C96ED91FC911D978481CE
:100910000E94D90ED0E0BE01759567956170D8012F
:100920001C96ED91FC911D9785810E94D90EBE0108
:1009300075956795759567956170D8011C96ED91D1
:10094000FC911D9786810E94D90E23E0D595C7950D
:100950002A95E1F76C2F6170D8011C96ED91FC91FE
:100960001D978781DF91CF911F910F910C94D90E24
:100970002FEF260F243068F4E62FF0E0EE0FFF1F74
:10098000E056FE4F6081718124E630E040E050E0A7
:1009900006C024E630E040E050E06BE572E1FC0187
:1009A00084810C9461100C94B8040C94B804FF92E8
:1009B0000F931F93CF93DF932091D003222331F025
:1009C0002091D003222309F44AC017C0DC011496F9
:1009D0002D913C911597232B99F74BE951E0DA01C2
:1009E000EA2FE41B2D91222329F0F0E0E053FC4F85
:1009F0002183F6CFE093D003E3CFEC0164EF71E005
:100A000080E090E00E94780FF090D003FF2011F179
:100A10001092990410929A0480ED93E090939804B8
:100A20008093970400913504109136040115110547
:100A300069F0D801ED91FC910084F185E02D6F2DD6
:100A4000C8010995F80102811381F0CF83E994E090
:100A50000E94A0018C819D8101969D838C83DF91F2
:100A6000CF911F910F91FF9008951F93CF93DF9324
:100A7000E091D003E436D8F4162F81E08E0F8093F6
:100A8000D003F0E0E053FC4F6183C0913504D09176
:100A90003604209789F0E881F9810680F781E02DFE
:100AA000612FCE0109950A80DB81C02DF2CFDF9145
:100AB000CF911F910C94D704DF91CF911F9108958E
:100AC0002091970430919804232B21F081E08093AA
:100AD0009A040895633019F465E00C94350508957F
:100AE0002091970430919804232B21F081E080938A
:100AF0009A040895633089F028F4613049F0623037
:100B000049F00895653069F050F0663061F008955D
:100B100061E001C062E00C94350563E0FCCF64E065
:100B2000FACF0C94D7041092D00385E394E00C9490
:100B30005D012F923F924F925F926F927F928F92C0
:100B40009F92AF92BF92CF92DF92EF92FF920F935C
:100B50001F93CF93DF9300D01F92CDB7DEB71092D3
:100B6000D00385E394E00E945D0160E4E62EFF245B
:100B7000F39475E0772E00E1E3ECF2E080818111DF
:100B80001AC0AF014F5F5F4F5B834A8310E0272C91
:100B9000602E512E2FEF9AE0492E33243A9438EEEE
:100BA000C32E33E0D32E4AE5A42E41E0B42E5CE3FD
:100BB000852E912C61C08A3321F3843671F08F36F3
:100BC000E9F08236A1F56F0182E0C80ED11CC601A2
:100BD0000E9456177C01960122C06F0142E0C40EAC
:100BE000D11CC6010E945617082F9601F9012F5FEC
:100BF0003F4F808180538A30C8F3C0CF6F0152E0ED
:100C0000C50ED11CC6010E945617782E9601F90117
:100C10002F5F3F4F808180538A30C8F3AFCFF901F7
:100C20002F5F3F4F808180538A30C8F3A7CF319622
:100C3000A5CF9A3058F58A819B81298327FF22C04E
:100C40000E945617FC01EE9DC001EF9D900DFE9D88
:100C5000900D1124B4010E94C216662E572E2981D0
:100C60004A815B815B834A834F5F5F4FEA81FB81EF
:100C7000808180538A30B0F3EA81FB8190819111A9
:100C8000D8CF95C00E945617282EE9CF933619F178
:100C90007CF49C3241F12CF4933209F081C02F5F37
:100CA0007FC09136B1F0923609F07AC023E078C067
:100CB0009636A9F03CF4943681F0953609F070C070
:100CC00028E06EC0973669F0903709F069C020E0DF
:100CD00067C021E065C024E063C026E061C029E070
:100CE0005FC02AE05DC02F3F09F452C08CEF820D37
:100CF000853008F051C01216CCF4822D90E0049794
:100D0000489EF001499EF00D1124E20FF11D27FDD0
:100D1000FA95EE0FFF1FE55FFE4F6081718120E0C5
:100D200030E0A901809141040E946110C601662D46
:100D3000752D0E94C21680E090E00E94780F80918D
:100D4000410490910C0198131FC0F50194913092C9
:100D50000C01913071F050F0933089F09430A1F48F
:100D6000909172009F7B909372000EC010926E0063
:100D70000BC090916F009D7F90936F0005C0909184
:100D800071009D7F9093710060E00E94D90E04C0B5
:100D9000272C602E512E04C0272C602E512E2FEFB1
:100DA0004A815B814F5F5F4F5B834A8365CF0F90C2
:100DB0000F900F90DF91CF911F910F91FF90EF90C7
:100DC000DF90CF90BF90AF909F908F907F906F906B
:100DD0005F904F903F902F900895CF93DF93EC0159
:100DE000E62FF0E0E950FD4FA8A1B9A160818D91F7
:100DF0009C910E946E13E8A1F9A16AE08081918123
:100E0000DF91CF910C946E13CF93DF93EC01E62F1B
:100E1000F0E0E250FD4FA8A1B9A160818D919C91B5
:100E20000E946E13E8A1F9A16AE080819181DF91AF
:100E3000CF910C946E13CF93DF93EC01E8A1F9A14D
:100E400066E073E0808191810E947513E8A1F9A1A9
:100E50006BE073E0808191810E947513E8A1F9A194
:100E60006AE080819181DF91CF910C946E13CF93D2
:100E7000DF93EC01E8A1F9A166E073E08081918144
:100E80000E947513E8A1F9A161E173E0808191816D
:100E90000E947513E8A1F9A16AE080819181DF9138
:100EA000CF910C946E130F931F93CF93DF93EC01AC
:100EB000062F142FE8A1F9A166E073E080819181EB
:100EC0000E947513E8A1F9A165E173E08081918129
:100ED0000E947513402F50E060E070E0E8A1F9A196
:100EE0002AE0808191810E942513E8A1F9A16EE199
:100EF00073E0808191810E947513412F50E060E082
:100F000070E0E8A1F9A12AE0808191810E94251377
:100F1000E8A1F9A16AE080819181DF91CF911F91D1
:100F20000F910C946E131F93CF93DF93EC01162F48
:100F3000E8A1F9A166E073E0808191810E947513B8
:100F4000E8A1F9A160E273E0808191810E947513AC
:100F5000412F50E060E070E0E8A1F9A12AE0808133
:100F600091810E942513E8A1F9A16AE08081918115
:100F7000DF91CF911F910C946E131F93CF93DF934A
:100F8000EC01162FE8A1F9A166E073E08081918160
:100F90000E947513412F50E060E070E0E8A1F9A1D4
:100FA0002AE0808191810E942513E8A1F9A160E2E5
:100FB000808191810E946E13E12FF0E0E950FD4F96
:100FC000A8A1B9A160818D919C910E946E13E8A1A6
:100FD000F9A16AE080819181DF91CF911F910C94FA
:100FE0006E130F931F93CF93DF93EC018C010E5D73
:100FF0001F4FE8A1F9A180819181DC01ED91FC9165
:101000000480F581E02D0995892B09F44DC0E8A1F4
:10101000F9A180819181DC01ED91FC910680F7813D
:10102000E02D09959DA58A30A1F5FE01E90FF11D7E
:1010300012A21DA6F80101900020E9F7CF01029746
:1010400080179107B1F66AA1062E000C770B8FEF7F
:1010500092E00E944B17009741F08F5F924061E051
:10106000680F85E394E00E942B016AA1062E000C14
:10107000770B88EF92E00E944B17009709F4B9CFE5
:10108000885F924061E0680F85E394E00E9444012C
:10109000B0CF9A3008F0ADCF21E0290F2DA7FE0187
:1010A000E90FF11D82A3A5CFDF91CF911F910F9181
:1010B0000895FC01848DDF01A80FB11DA35ABF4F15
:1010C0002C91848D90E001968F739927848FA68947
:1010D000B7892C93A089B1898C9180648C93938D6E
:1010E000848D981306C00288F389E02D80818F7D5E
:1010F00080830895DC01ED91FC911197309719F4EC
:101100006D937C93089582819381009711F0FC0187
:10111000FACF738362830895CF93DF93EC01EC855C
:10112000FD8561E080810E943C0FEC85FD8561E0DA
:1011300081810E943C0FEC85FD8561E082810E94E7
:101140003C0FEC85FD8561E083810E943C0FEC85BE
:10115000FD8561E084810E943C0FEC85FD8561E0A6
:1011600085810E943C0FEC85FD8561E086810E94AF
:101170003C0FEC85FD8561E087810E943C0F88E093
:1011800090E0998B888B9B8B8A8BBE01685F7F4F29
:1011900085E394E0DF91CF910C947A08BC0185E35C
:1011A00094E00C947A08CF93DF93EC010E94CE0870
:1011B000E8A1F9A18181811102C060E001C062E073
:1011C00080810E943C0F1AA2DF91CF910895CF92A7
:1011D000DF92EF92FF92CF93DF93EC010E94CE0853
:1011E000E8A1F9A1C280D380E480F580C081D181DB
:1011F000E889F98982E08083C11481EED806E10490
:10120000F104B1F060E079E08DE390E0A701960190
:101210000E94D616DA01C9010197A109B109B69554
:10122000A795979587959C01211580E13807A8F02F
:10123000E889F989108260E874E88EE190E0A701FE
:1012400096010E94D616DA01C9010197A109B109D8
:10125000B695A795979587959C01EC85FD8530837C
:10126000EE85FF852083188EEC89FD8986E08083DA
:10127000EA89FB89808180618083EA89FB8980819A
:1012800088608083EA89FB89808180688083EA891D
:10129000FB8980818F7D8083DF91CF91FF90EF90DC
:1012A000DF90CF900895FC0180912C03811103C041
:1012B0008FEF9FEF08959FB7F89482E08093E90045
:1012C0002091F20030E01216130614F421E030E011
:1012D0002115310559F0289A84E680932B038091DB
:1012E000F10080838091F200882319F09FBFC9012B
:1012F00008958BE68093E800F9CF8091AD048111C9
:101300000DC082E08093A90484E08093AA04109227
:10131000AC041092AB0481E08093AD0489EA94E0C0
:101320000895CF93DF931F92CDB7DEB76983DC01B9
:10133000ED91FC910280F381E02D41E050E0BE018F
:101340006F5F7F4F09950F90DF91CF91089583E0F4
:101350008093E9008091F200882319F08AE380935A
:10136000E8000895CF93DF931F92CDB7DEB7FC015D
:101370008485958597FD05C02FEF3FEF358724873E
:101380000BC0CE0101960E945309019719F489817F
:1013900090E002C08FEF9FEF0F90DF91CF91089503
:1013A0000F931F93CF93DF931F92CDB7DEB78C01BE
:1013B000FC018485958597FF0EC0CE0101960E94A1
:1013C0005309019719F4298130E002C02FEF3FEF54
:1013D000F80135872487F801848595850F90DF9182
:1013E000CF911F910F910895FC018485958597FDFC
:1013F0000BC09FB7F89482E08093E9008091F200DF
:101400009FBF90E0019608959FB7F89482E0809383
:10141000E9008091F2009FBF90E008958F929F9223
:10142000AF92BF92CF92DF92EF92FF920F931F93F2
:10143000CF93DF935C016B018A0180910B018823BC
:1014400009F45EC080912C03882309F459C080916F
:101450002A0380FF05C08091E00082608093E00055
:10146000E8018AEFF82E93E0E92E2FE3822E3AE38B
:10147000932E209709F43DC08FB7F894E092E900CD
:101480009091E80095FF06C09091F200282D291B4D
:10149000922F01C090E08FBF91110AC0FA94FF20F3
:1014A00079F161E070E080E090E00E94780FE1CF98
:1014B000292F30E0C217D3070CF49C2F8FB7F89474
:1014C000E092E9002091E80025FF11C0292F30E0CB
:1014D000C21BD30BF601915020F041914093F100D3
:1014E000FACFC20ED31E9091E80095FF13C08FBFB4
:1014F000C0CF5D9A84E68093A8041016110644F0CC
:1015000081E090E0F5019383828380E090E005C064
:10151000C80103C09092E800EACFDF91CF911F91FC
:101520000F91FF90EF90DF90CF90BF90AF909F9082
:101530008F900895DF92EF92FF920F931F93CF93B6
:10154000DF93D82E8A017B01E40EF51EEB01CE1548
:10155000DF0571F0D7FE03C0FE01849101C08881D0
:101560000E949E0E21968111F2CF8FEF9FEF01C056
:10157000C801DF91CF911F910F91FF90EF90DF9005
:1015800008950F931F93CF93DF931F92CDB7DEB7CC
:1015900082E0898342E450E066ED70E080E80E94DA
:1015A0009A0A0E947D09DC0112960D911C911397F5
:1015B0000115110569F0D801ED91FC910280F381CC
:1015C000E02DBE016F5F7F4FC801099597FF07C0EF
:1015D00089810F90DF91CF911F910F910895F801AC
:1015E00000851185E5CF1F920F920FB60F9211243F
:1015F0008F939F938091E1009091E100937F90936E
:10160000E10083FF0FC01092E90091E09093EB009E
:101610001092EC0092E39093ED0010922C0398E06E
:101620009093F00082FF20C093E09093E9009091A6
:10163000F200992319F09AE39093E8009091A8049E
:10164000992339F09091A80491509093A80499237C
:1016500089F190912B03992339F090912B039150AC
:1016600090932B03992341F184FF10C08091E200F5
:101670008E7E81608093E2008091E1008F7E809376
:10168000E10080912A038E7E806111C080FF16C028
:101690008091E2008E7E80618093E2008091E10083
:1016A0008E7E8093E10080912A038E7E81608093FC
:1016B0002A0304C05D98CDCF2898D6CF9F918F91F3
:1016C0000F900FBE0F901F9018951F920F920FB69C
:1016D0000F921124CF92DF92EF92FF920F931F93FC
:1016E0002F933F934F935F936F937F938F939F932A
:1016F000AF93BF93EF93FF93CF93DF93CDB7DEB755
:101700006C97DEBFCDBF1092E9008091E80083FFA7
:10171000FAC168E0CE0145960E94CC0E82EF80931C
:10172000E8008D8987FF05C09091E80090FFFCCF0D
:1017300003C09EEF9093E800982F907609F0C6C002
:101740009E892F89188D91110CC0803829F48091C1
:1017500029038093F10002C01092F1001092F10071
:1017600047C1422F50E0512B913051F4811140C1BB
:101770004130510509F03CC1809129038D7F0BC098
:10178000933061F4811134C14130510509F030C109
:10179000809129038260809329032AC1953041F406
:1017A0008091E80080FFFCCF20682093E30020C1F7
:1017B000963009F05FC0EB8CFC8C1092E90010921F
:1017C000270310922603123091F5109225031092F0
:1017D00024030E94C10A99E0BE016F5F7F4FDB01C5
:1017E000E92F1D92EA95E9F799831A8391E09E8388
:1017F00090EA98879AEF99872091260330912703E2
:10180000275F3F4F3C832B838D831092E90010921A
:10181000270310922603F0922503E092240349E067
:1018200050E080E00E949A0A0E94C10AE1C0F09252
:101830002503E09224030E947D09DC011296ED90BD
:10184000FC901397E114F10409F4C0C0D701ED91A5
:10185000FC910480F581E02DBE016B5E7F4FC701D6
:101860000995009719F00CF0C3C0C6C0F701E084D9
:10187000F184E8CF973009F4BFC0983021F481E0BB
:101880008093F100B5C0993009F0B2C0837009F0BF
:10189000B3C0E7EBF1E081E021E036E390819923EA
:1018A00061F08093E9002093EB0091919093EC001C
:1018B0003093ED008F5F873089F78EE78093EA00E1
:1018C0001092EA008F8980932C0392C08B8D9C8D9F
:1018D0001092E9001092270310922603909325039B
:1018E00080932403898D811156C08E899D89913AF8
:1018F00059F4813209F080C047E050E064E071E0C3
:1019000080E00E949A0A74C0913209F075C0833257
:1019100089F4888D90E0982F88272F89822BA0E06A
:10192000B0E08093000190930101A0930201B09375
:1019300003015EC0803269F48091E80082FFFCCF31
:1019400067E084E091E00E94CC0E8BEF8093E8008A
:1019500006C0823209F04CC08F8980930B018091C0
:101960002803882319F0EEEFFAE002C0E0E0F8E087
:101970008091040190910501A0910601B0910701A9
:10198000803B9440A105B10509F088C080910B010E
:1019900080FFA0C083C00E947D09DC0112960D91DA
:1019A0001C9113970115110539F1D801ED91FC91A6
:1019B0000190F081E02DBE016B5E7F4FC80109955B
:1019C000811116C0F80100851185ECCF1130C1F0EE
:1019D000133091F48F89882309F455C08230E9F4DB
:1019E00040E86DE088E291E00E948414882321F0B1
:1019F0008EEF8093E80087C081E28093EB0083C084
:101A00008B8D9C8D089711F41093A7048091A704E7
:101A1000811136C066E371E038C0813029F440E8B6
:101A20006BE08CE191E0E0CF833031F70E947D09DB
:101A3000DC011296ED90FC9013978E010F5F1F4F03
:101A40006801E114F10479F0D701ED91FC91068071
:101A5000F781E02DB801C7010995080F111DF701A5
:101A6000E084F184EECFD8011C92F60101900020B1
:101A7000E9F73197BF016C197D0940E0C601B4CF89
:101A800068E471E002C068E171E06115710509F474
:101A9000B3CFFB01449150E080E833CF0FB6F89408
:101AA000A89580916000886180936000109260002A
:101AB0000FBEA895EE3F2AE0F20739F08091FE0AAA
:101AC0009091FF0A9183808393CF1092FF0A109226
:101AD000FE0A8ECFEE3F8AE0F80731F080819181D7
:101AE0009093FF0A8093FE0A87E797E791838083AC
:101AF0009BE088E10FB6F894A895809360000FBE34
:101B00009093600075CF6C960FB6F894DEBF0FBE51
:101B1000CDBFDF91CF91FF91EF91BF91AF919F9199
:101B20008F917F916F915F914F913F912F911F9175
:101B30000F91FF90EF90DF90CF900F900FBE0F901E
:101B40001F9018953FB7F89480912605909127052E
:101B5000A0912805B091290526B5A89B05C02F3F67
:101B600019F00196A11DB11D3FBFBA2FA92F982FC3
:101B70008827820F911DA11DB11DBC01CD0142E03E
:101B8000660F771F881F991F4A95D1F70895CF9246
:101B9000DF92EF92FF920F931F93CF93DF936C012D
:101BA0007A018B01C0E0D0E0CE15DF0589F0D801C5
:101BB0006D918D01D601ED91FC910190F081E02DA8
:101BC000C6010995892B11F47E0102C02196ECCF44
:101BD000C701DF91CF911F910F91FF90EF90DF90A0
:101BE000CF900895FC01918D828D981761F0828DC0
:101BF000DF01A80FB11D5D968C91928D9F5F9F7341
:101C0000928F90E008958FEF9FEF0895FC01918DE2
:101C1000828D981731F0828DE80FF11D858D90E04F
:101C200008958FEF9FEF08950E9446176115710583
:101C300079F0FB0101900020E9F73197AF01461BD5
:101C4000570BDC01ED91FC910280F381E02D0994AA
:101C500080E090E008958DE293E00E94150121E07C
:101C6000892B09F420E0822F0895EF92FF920F93C1
:101C70001F93CF93DF93EC0181E0888F9B8D8C8D38
:101C8000981305C0E889F989808185FD24C0F62E66
:101C90000B8D10E00F5F1F4F0F731127E02E8C8DFF
:101CA000E8120CC00FB607FCFACFE889F9898081E9
:101CB00085FFF5CFCE010E945908F1CF8B8DFE0133
:101CC000E80FF11DE35AFF4FF0820B8FEA89FB8981
:101CD0008081806207C0EE89FF896083E889F98985
:101CE00080818064808381E090E0DF91CF911F91BB
:101CF0000F91FF90EF900895CF93DF93EC01888DC3
:101D00008823C9F0EA89FB89808185FD05C0A889FF
:101D1000B9898C9186FD0FC00FB607FCF5CF808185
:101D200085FFF2CFA889B9898C9185FFEDCFCE01CF
:101D30000E945908E7CFDF91CF9108954091260383
:101D40005091270320912403309125034217530714
:101D5000B4F49091E8009570E1F39091E80092FD61
:101D600019C08093F100809126039091270301967A
:101D70008F739927892B19F48EEF8093E800809157
:101D800026039091270301969093270380932603BF
:101D900081E0089580E00895615030F02091F100D5
:101DA000FC0120830196F8CF289A84E680932B03C8
:101DB0000895362F90E0FC01EB54FE4F4491FC0156
:101DC000EA56FE4F2491FC01E958FE4F8491882386
:101DD00009F451C04423E1F150E0FA013197EF30AA
:101DE000F105B0F5EA5AFF4F0C9417179091800057
:101DF0009F7707C0909180009F7D03C090918000E5
:101E0000977F9093800024C094B59F7702C094B5CB
:101E10009F7D94BD1DC0909190009F7707C09091C9
:101E200090009F7D03C090919000977F90939000C9
:101E30000FC09091C0009F7703C09091C0009F7D1C
:101E40009093C00005C09091C200977F9093C2000C
:101E5000E82FF0E0EE0FFF1FE759FE4FA591B49178
:101E60008FB7F894EC91311103C020952E2301C057
:101E70002E2B2C938FBF0895CF93DF9390E0FC011E
:101E8000EA56FE4F2491FC01E958FE4F84918823C5
:101E900061F190E0880F991FFC01E55AFE4FC59152
:101EA000D491FC01E759FE4FA591B491611109C08D
:101EB0009FB7F8948881209582238883EC912E2304
:101EC0000BC0623061F49FB7F8943881822F8095FF
:101ED00083238883EC912E2B2C939FBF06C08FB752
:101EE000F894E8812E2B28838FBFDF91CF9108953E
:101EF0008F929F92AF92BF92CF92DF92EF92FF921A
:101F00006B017C010E94A20D4B015C01C114D10444
:101F1000E104F104F1F00E94A20DDC01CB0188196B
:101F20009909AA09BB09883E9340A105B10570F340
:101F300021E0C21AD108E108F10888EE880E83E09A
:101F4000981EA11CB11CC114D104E104F10419F7BD
:101F5000DDCFFF90EF90DF90CF90BF90AF909F903C
:101F60008F9008951F920F920FB60F9211242F9306
:101F70003F938F939F93AF93BF938091220590914E
:101F80002305A0912405B09125053091210523E07A
:101F9000230F2D3720F40196A11DB11D05C026E8A1
:101FA000230F0296A11DB11D2093210580932205C8
:101FB00090932305A0932405B093250580912605D1
:101FC00090912705A0912805B09129050196A11DA2
:101FD000B11D8093260590932705A0932805B09303
:101FE0002905BF91AF919F918F913F912F910F90B4
:101FF0000FBE0F901F9018951F920F920FB60F9261
:1020000011242F933F938F939F93AF93BF93EF939D
:10201000FF9380911D0590911E05A0911F05B09121
:102020002005892B8A2B8B2B51F180911C05E09187
:102030001A05F0911B0590818927808380911D05E9
:1020400090911E05A0911F05B09120051816190644
:102050001A061B064CF580911D0590911E05A09156
:102060001F05B09120050197A109B10980931D05B5
:1020700090931E05A0931F05B093200515C0809175
:1020800071008D7F8093710090911C05E0911A057D
:10209000F0911B058081282F30E0892F90E08095FA
:1020A0009095822393238083FF91EF91BF91AF910D
:1020B0009F918F913F912F910F900FBE0F901F9086
:1020C00018953F924F925F926F927F928F929F925C
:1020D000AF92BF92CF92DF92EF92FF920F931F9336
:1020E000CF93DF9300D000D0CDB7DEB729013A01FE
:1020F00090910C01981721F09F3F09F090C204C005
:10210000EAE5F1E03490AEC080930C01EAE5F1E03D
:10211000E491EF3F09F483C2E13009F452C01CF5A9
:10212000E1119FC014BC15BC94B5926094BD95B5E7
:10213000916095BD282F30E0F901E958FE4FE491F8
:10214000F0E0EE0FFF1FE759FE4F45915491509379
:102150000D0540930C05F901EA56FE4FE491E0931A
:102160000B05312C81C0E33009F453C0E43009F091
:1021700078C01092C0001092C1009091C100986088
:102180009093C1009091C10091609093C100482F3D
:1021900050E0FA01E958FE4FE491F0E0EE0FFF1F26
:1021A000E759FE4F2591349130930705209306059A
:1021B000FA01EA56FE4FE491E0930505B4E03B2EA8
:1021C00053C010928000109281009091810098601D
:1021D0009093810090918100916090938100282FCD
:1021E00030E0F901E958FE4FE491F0E0EE0FFF1FF7
:1021F000E759FE4F4591549150930A0540930905C4
:10220000F901EA56FE4FE491E09308053324339434
:102210002BC01092900010929100909191009860C4
:102220009093910090919100916090939100282F4C
:1022300030E0F901E958FE4FE491F0E0EE0FFF1FA6
:10224000E759FE4F4591549150931B0540931A0551
:10225000F901EA56FE4FE491E0931C0503E0302EAD
:1022600003C03E2E37FCDBC18B0161E00E943C0FB6
:102270004801A12CB12C832D8D7F09F0CCC060E0EA
:1022800072E18AE790E0A50194010E94F816298383
:102290003A834B835C8369017A0121E0C21AD10839
:1022A000E108F1088FEFC816D104E104F10409F048
:1022B00008F44BC060E472E48FE090E0A501940163
:1022C0000E94F81669017A0191E0C91AD108E10863
:1022D000F108E2E03E121FC0FFEFCF16D104E10487
:1022E000F10409F008F4F4C060E970ED83E090E0D7
:1022F000A50194010E94F81669017A0181E0C81ACB
:10230000D108E108F1089FEFC916D104E104F104F6
:1023100009F010F5DDC0EFEFCE16D104E104F104B1
:10232000B1F0A8F068E478EE81E090E0A5019401B6
:102330000E94F81669017A01F1E0CF1AD108E1088C
:10234000F108332009F437C12CC181E001C082E0DB
:10235000332009F45BC0BCC068E478EE81E090E013
:10236000A50194010E94F81669017A01F1E0CF1AE3
:10237000D108E108F1082FEFC216D104E104F104FD
:1023800009F008F4A5C064E274EF80E090E0A501D4
:1023900094010E94F81669017A0181E0C81AD108F7
:1023A000E108F1089FEFC916D104E104F10409F036
:1023B00008F48EC062E17AE780E090E0A501940124
:1023C0000E94F81669017A0181E0C81AD108E10873
:1023D000F1089FEFC916D104E104F10409F008F4F3
:1023E000DEC089819A81AB81BC814AE0B595A79511
:1023F000979587954A95D1F76C017D01E1E0CE1A5A
:10240000D108E108F108311063C085E095B5987FE7
:10241000892B85BD5DC060E072E18AE790E0A5018F
:1024200094010E94F81669017A01F1E0CF1AD108EF
:10243000E108F108C114D10421E0E206F10488F0BA
:1024400068E478EE81E090E0A50194010E94F8161E
:1024500069017A0181E0C81AD108E108F10883E036
:1024600001C081E091E039120FC090918100987F06
:10247000892B80938100411451046104710469F532
:102480002FEF3FEFA90157C0E3E03E120FC090913C
:102490009100987F892B809391004114510461042D
:1024A0007104D9F42FEF3FEFA90157C0F4E03F12B8
:1024B0000FC09091C100987F892B8093C100411477
:1024C00051046104710449F42FEF3FEFA90157C093
:1024D000411451046104710471F0D801AA0FBB1FAB
:1024E000A30192010E943B1728EE33E040E050E048
:1024F0000E94D61603C02FEF3FEFA90181E03816E6
:10250000D1F083158CF031108AC0C7BC209316051A
:1025100030931705409318055093190580916E006C
:10252000826080936E007BC093E03916B1F0E4E0E6
:102530003E1629F174C0D0928900C0928800209381
:10254000120530931305409314055093150580919F
:102550006F00826080936F0062C0D0929900C09239
:10256000980020931D0530931E0540931F0550933E
:1025700020058091710082608093710050C0C092EC
:10258000CF0020930E0530930F0540931005509314
:1025900011058091720080648093720040C086E0D3
:1025A000D7CEEFEFCE16D104E104F10411F008F01C
:1025B00001CF84E0CDCE8FEFC816D104E104F10441
:1025C000C9F0C0F062E17AE780E090E0A5019401F3
:1025D0000E94F81669017A01F1E0CF1AD108E108EA
:1025E000F1082FEFC216D104E104F10409F020F440
:1025F00084E00CCF83E00ACF89819A81AB81BC81D2
:102600002AE0B595A795979587952A95D1F76C01FE
:102610007D01E1E0CE1AD108E108F108F6CE0F9075
:102620000F900F900F90DF91CF911F910F91FF901E
:10263000EF90DF90CF90BF90AF909F908F907F9062
:102640006F905F904F903F9008954F925F926F927E
:102650007F92EF92FF920F931F93CF93DF93CDB7AB
:10266000DEB7A1970FB6F894DEBF0FBECDBF7C01D9
:10267000FA01CB0119A2223008F42AE08E010F5D85
:102680001F4F422E512C612C712CBF01A3019201CE
:102690000E94D616F901CA01015011096A3014F4DA
:1026A000605D01C0695CD8016C93232B242B252B22
:1026B00061F7B801C7010E94160EA1960FB6F894F3
:1026C000DEBF0FBECDBFDF91CF911F910F91FF9065
:1026D000EF907F906F905F904F900895DC01ED91A7
:1026E000FC910190F081E02D09940C94160E1F923C
:1026F0000F920FB60F9211242F933F934F935F9336
:102700006F937F938F939F93AF93BF93EF93FF93B9
:102710008DE293E00E945908FF91EF91BF91AF9134
:102720009F918F917F916F915F914F913F912F91E9
:102730000F900FBE0F901F9018951F920F920FB61B
:102740000F9211242F938F939F93EF93FF93E09118
:102750003D03F0913E038081E0914303F0914403F7
:1027600082FD12C09081809146038F5F8F7320910C
:102770004703821751F0E0914603F0E0E35DFC4F20
:10278000958F8093460301C08081FF91EF919F91C7
:102790008F912F910F900FBE0F901F901895FF9261
:1027A0000F931F93CF93DF93DC0114962D913C91EF
:1027B0001597232B09F49FC0EC018A899B89009708
:1027C00091F588899989892B09F04FC060E0CD0186
:1027D0000E943E0460E0CE010E947B04EC81FD81FA
:1027E0008E81E80FF11DF1800091350410913604BF
:1027F0000115110569F0D801ED91FC910480F58176
:10280000E02D6F2DC8010995F80102811381F0CFE9
:102810008E818F5F8E83CE01DF91CF911F910F91BB
:10282000FF900C94A0011816190614F01FEF01C0B8
:1028300011E0EE850E2E000CFF0BE655FE4F608179
:10284000CE010E943E048E85885F810F877887FFC6
:1028500003C08150886F8F5F8E878A899B89811B17
:10286000910917FD93959B8B8A8B8889998900978D
:1028700001F114F41FEF01C011E0EF850E2E000CE2
:10288000FF0BE655FE4F6081CE010E947B048F85D1
:10289000885F810F877887FF03C08150886F8F5FC3
:1028A0008F8788899989811B910917FD9395998B49
:1028B000888B8F81882329F0198A188A1B8A1A8AA3
:1028C0001AC0EC85FD8520853185032E000C440B54
:1028D000550B60E472E48FE090E00E94F81622301D
:1028E000310548F0220F331F220F331F25503109C5
:1028F000C9010197F1F7DF91CF911F910F91FF90DF
:10290000089508970C94CF13CF92DF92EF92FF9225
:102910000F931F93CF93DF931F92CDB7DEB7182F7E
:10292000062FE42E862F880F8E5F99830E949E0EBD
:1029300083E00E949E0EF12EC12E9981D92E8C2DFE
:102940008F19801798F4F601E7FE02C0849101C048
:1029500080810E949E0E182F80E00E949E0E81238F
:10296000FFEFCF1ADF0A8111EACF01C081E00F909B
:10297000DF91CF911F910F91FF90EF90DF90CF905B
:102980000895E5EBF4E01382128288EE93E0A0E074
:10299000B0E084839583A683B78321EC31E0318353
:1029A00020832FEF3FEF35872487EDE2F3E013829A
:1029B000128284839583A683B78381ED91E091830E
:1029C00080838DEC90E0958784878CEC90E09787EE
:1029D000868788EC90E0918B808B89EC90E0938BDC
:1029E000828B8AEC90E0958B848B8EEC90E0978BB9
:1029F000868B118E128E138E148EEAECF3E0138206
:102A0000128281EE91E09183808315821482E3E942
:102A1000F4E08AE590E09383828315821482168223
:102A200017821386128689E792E09183808385E876
:102A300092E09187808784EB92E095878487118A62
:102A4000108A138A128A16861786E0E7F4E013824A
:102A500012821482158216821782108611861286BF
:102A600013861486158616861786108A118A128A8E
:102A7000138A148A158A168A178A108E118E128E5E
:102A8000138E148E158E168E178E8BE592E0918321
:102A9000808386EA92E091A380A3E2E4F4E01382CB
:102AA000128214821582168217821086118612866F
:102AB00013861486158616861786108A118A128A3E
:102AC000138A148A158A168A178A108E118E128E0E
:102AD000138E148E158E168E178E8FE292E09183D0
:102AE000808380EA92E091A380A315A6EDE3F4E051
:102AF0001382128285E192E0918380838AE084834D
:102B0000E7E3F4E0138212828BEF91E091838083FC
:102B10008BE992E0958384831092360410923504F9
:102B20001092D0030895789484B5826084BD84B5F2
:102B3000816084BD85B5826085BD85B5816085BDB8
:102B400080916E00816080936E0010928100809170
:102B500081008260809381008091810081608093F8
:102B6000810080918000816080938000809191003D
:102B700082608093910080919100816080939100A8
:102B8000809190008160809390008091C10084606A
:102B90008093C1008091C10082608093C1008091C8
:102BA000C10081608093C1008091C30081608093E7
:102BB000C3008091C00082608093C0008091C200F9
:102BC00081608093C20080917A00846080937A0053
:102BD00080917A00826080937A0080917A0081608F
:102BE00080937A0080917A00806880937A001092B6
:102BF0002C031092290310922A038091D700816040
:102C00008093D70080EA8093D80089B5806189BD20
:102C100089B5826089BD09B400FEFDCF61E070E036
:102C200080E090E00E94780F8091D8008F7C8061D6
:102C30008093D8008091E000807F8093E0008091B5
:102C4000E1008E7E8093E1008DE08093E200559A52
:102C5000209A5D982898EEEFFFE7859194918B3F3D
:102C60009C4D19F481E080932803E0919304F09146
:102C700094040190F081E02D83E994E00995E091BE
:102C80007004F09171040688F789E02D80E794E0E4
:102C90000995E0914204F09143040688F789E02DFC
:102CA00082E494E0099561E0809141040E943C0F28
:102CB0006DE374E085E394E00E947A0824E630E056
:102CC00040E050E06BE572E1809141040E946110A8
:102CD000E0913B04F0913C0461E080810E943C0F54
:102CE000E0913B04F0913C0461E081810E943C0F43
:102CF000E0913B04F0913C0461E082810E943C0F32
:102D0000E0913B04F0913C0461E083810E943C0F20
:102D1000E0913B04F0913C0461E084810E943C0F0F
:102D200067E374E085E394E00E947A086AEC73E05C
:102D300085E394E00E947A080E94A20D6B017C0159
:102D4000C0913504D0913604209769F0E881F9816B
:102D50000190F081E02DB701A601CE0109950A800E
:102D6000DB81C02DF1CF8091970490919804892B3D
:102D700031F46AE070E080E090E00E94780F0E94F9
:102D80002101DACFAA1BBB1B51E107C0AA1FBB1F41
:102D9000A617B70710F0A61BB70B881F991F5A95E7
:102DA000A9F780959095BC01CD010895A1E21A2E56
:102DB000AA1BBB1BFD010DC0AA1FBB1FEE1FFF1FDF
:102DC000A217B307E407F50720F0A21BB30BE40B2F
:102DD000F50B661F771F881F991F1A9469F7609576
:102DE0007095809590959B01AC01BD01CF01089530
:102DF000052E97FB1EF400940E940F1757FD07D075
:102E00000E94D61607FC03D04EF40C940F17509571
:102E10004095309521953F4F4F4F5F4F08959095C6
:102E20008095709561957F4F8F4F9F4F0895EE0F5E
:102E3000FF1F0590F491E02D09940E94251733237C
:102E400012F48A1B9B0B0C943617A29FB001B39F00
:102E5000C001A39F700D811D1124911DB29F700DA3
:102E6000811D1124911D08950E942517B7FF089513
:102E7000821B930B08950E942517A59F900DB49F68
:102E8000900DA49F800D911D1124089581E090E084
:102E9000F8940C947C17FC018191861721F088230B
:102EA000D9F7992708953197CF010895FC01882714
:102EB0009927E89421912032E9F3293010F02E303F
:102EC000C8F32B3241F02D3239F4689404C00E94CB
:102ED0007417820F911D219120532A30C0F31EF4E4
:102EE000909581959F4F08957AE0979F902D879FA9
:0C2EF000802D910D11240895F894FFCF5F
:102EFC00FFFFFFFF00E1000000000000FFB801D25F
:102F0C0001EE010B022A024B026E029302BA02E49A
:102F1C000210033F037003A403DB0316045404964E
:102F2C0004DC0426057405C7051F067D06E006486B
:102F3C0007B7072D08A9082D09B9094D0AE90A8F09
:102F4C000B3F0CFA0CC00D910E6F0F5A1052115A08
:102F5C001272139A14D3151F177F18F419801B22A1
:102F6C001DDE1EB420A522B524E4263429A72B3F50
:102F7C002EFF30E9330037453ABC3D68414B456A7A
:102F8C0049C84D68524E577F5CFF61010402020430
:102F9C0003004D0A5211C00DA90801030206040CCE
:102FAC0008090102030400C1808100000000000038
:102FBC000091090E0AF409B209D009A70900000012
:102FCC0000350EC70D1501F20D060E7C0E0000002B
:102FDC0000C303CD03CC03CB03CA039905C803BCC0
:102FEC0003C2037005600500000000C3030504F86C
:102FFC0003CB03CA03C903C8031B0418041504122A
:10300C000400000000C303D304CC03CB03CA03C9E0
:10301C0003C803C703C603D504C40300000000752E
:10302C0003CD03CC03CB03CA03C903C803C703C630
:10303C0003C503C403E708F1070407ED06BD0793B6
:10304C000737071B075307000000007503CD03CC9F
:10305C0003CB03CA03C903C803C703C603C503C410
:10306C0003D3085502000000008C0886017201CFC2
:10307C0013F8FF00008114CD03CC03CB03CA03C9A2
:10308C0003C803C703C603C503C403121514130DE9
:10309C002D0380250000190100025C030103AB0223
:1030AC002A0300000908070605040302E803CA0600
:1030BC0000043A643D31362C6F3D362C623D38307D
:1030CC00303A662C34702C662C34702C662C347090
:1030DC002C662C34702C632C34702C632C34702C98
:1030EC00632C34702C632C006E6573776772004E02
:1030FC004553574752005052473A00524553455496
:10310C0000454E440041424F5254454420002F008C
:04311C00474F2000F9
:00000001FF
