:100000000C945E000C9486000C9486000C94860080
:100010000C9486000C9486000C9486000C94870A3D
:100020000C9486000C9486000C9486000C94860038
:100030000C9486000C9486000C9486000C94860028
:100040000C94120A0C9486000C94C30D0C949D0D14
:100050000C9486000C9486000C9486000C94860008
:100060000C9486000C9486000200000000240027F7
:10007000002A0000000000250028002B00040404D2
:100080000404040404020202020202030303030341
:10009000030102040810204080010204081020011E
:1000A0000204081020000000080002010000030400
:1000B00007000000000000000000AE0E11241FBE6B
:1000C000CFEFD8E0DEBFCDBF13E0A0E0B1E0E6E3C4
:1000D000F2E202C005900D92A430B107D9F724E0F6
:1000E000A4E0B3E001C01D92A939B207E1F710E026
:1000F000CEE5D0E004C02197FE010E94A610CD35C8
:10010000D107C9F70E946A0F0C9419110C940000D2
:10011000FC01918D828D981761F0828DDF01A80F0F
:10012000B11D5D968C91928D9F5F9F73928F90E031
:1001300008958FEF9FEF0895FC01918D828D9817A0
:1001400031F0828DE80FF11D858D90E008958FEFDD
:100150009FEF0895FC01918D228D892F90E0805CA6
:100160009F4F821B91098F739927089580E090E03B
:10017000892B29F00E94C60881110C940000089573
:100180001F93CF93DF93162FFC01C081D18120975D
:1001900061F0E881F9810488F589E02D612FCE01B5
:1001A00009950A80DB81C02DF2CFDF91CF911F919D
:1001B00008951F93CF93DF93162FFC01C081D18147
:1001C000209761F0E881F9810288F389E02D612FA1
:1001D000CE0109950A80DB81C02DF2CFDF91CF914E
:1001E0001F910895CF93DF93FC01C081D1812097A7
:1001F00059F0E881F9810484F585E02DCE01099557
:100200000A80DB81C02DF3CFDF91CF910895CF928B
:10021000DF92EF92FF920F931F93CF93DF931F9282
:10022000CDB7DEB76C01DC0115962C9115971296AF
:10023000ED91FC9113971496FC9090916A03809134
:100240006B032223D1F0E080092F182F011511052F
:1002500071F0D801ED91FC910684F785E02D4E2DCB
:100260006F2DC8010995F80102811381EFCFD601E6
:1002700013961C921E9212976DC02081F21215C027
:10028000F60113821282092F182F0115110509F4A6
:1002900061C0D801ED91FC910284F385E02DC80185
:1002A0000995F80102811381F0CFEF0DF11D218135
:1002B000092F182F0115110579F0D801ED91FC9146
:1002C0000280F381E02D622FC80129830995F8018E
:1002D000028113812981EECF2230B9F050F4213010
:1002E000C9F5D601ED91FC910480F581E02D61E026
:1002F00026C02330E9F0243069F5D6011A96ED9135
:10030000FC911B97848595850AC0D6011A96ED91BC
:10031000FC911B97848595859195819591091F96F0
:100320009C938E931E9751969C938E93509712C0D8
:10033000D601ED91FC910480F581E02D6FEFC601AF
:100340000F90DF91CF911F910F91FF90EF90DF9071
:10035000CF9009940F90DF91CF911F910F91FF9053
:10036000EF90DF90CF900895FC01A285B3851A9697
:100370004D915C911B9764039001659F300D112492
:1003800037872687319521953109318B208B089548
:10039000CF93DF93EC01EA85FB852485358577FDD6
:1003A00003C0319521953109032E000C440B550BE8
:1003B000DB010E949E102AE530E040E050E00E9400
:1003C00052103F872E87398B288BDF91CF9108956C
:1003D0008F929F92AF92BF92EF92FF920F931F93D3
:1003E000CF93DC019096ED91FC91919790819E3096
:1003F00008F09E509770906490937C0080917A00F2
:10040000806480937A0080917A0086FDFCCF2091F1
:1004100078008091790030E0382B2F3D63E036077B
:1004200024F0A9014E5D534004C04EED53E0421B41
:10043000530B9096ED91FC91919782819381B90134
:10044000681B790BCB0177FF03C0919581959109CA
:10045000841795071CF4AC01C1E001C0C0E08481A1
:100460009581B901681B790BCB0177FF03C091958A
:10047000819591098417950714F4AC01C2E0868137
:100480009781B901681B790BCB0177FF03C0919568
:10049000819591098417950714F4AC01C3E0808518
:1004A0009185B901681B790BCB0177FF03C091954A
:1004B000819591098417950714F4AC01C4E08285F5
:1004C0009385B901681B790BCB0177FF03C0919528
:1004D000819591098417950714F4AC01C5E08485D2
:1004E0009585281B390B37FF03C0319521953109BC
:1004F000241735070CF4C6E092966C919297C617B4
:1005000009F469C08D01662391F18FEF860F7D019B
:1005100074E0879FE00CF11C1124D70114968D9094
:100520009D90AD90BC90179781149104A104B104E3
:10053000F1F0F801848D958DA68DB78D88199909F4
:10054000AA09BB098F319105A105B10580F0883E4C
:100550009340A105B10520F48AE693E00E94D900FA
:10056000D70114961D921D921D921C921797C111CE
:1005700003C0F801C2A32FC08FEF8C0F9801F4E0E5
:100580008F9F200D311D1124F90184819581A68151
:10059000B781892B8A2B8B2B61F7F801848D958D80
:1005A000A68DB78DF90184839583A683B783E090E8
:1005B0006A03F0906B03E114F104D9F2D701ED91D5
:1005C000FC910088F189E02D6C2FC7010995F70196
:1005D000E280F380F0CFCF911F910F91FF90EF90C9
:1005E000BF90AF909F908F900895EF92FF921F93CE
:1005F000CF93DF93EC01CB01BA0128EE33E040E06A
:1006000050E00E9452102C8F3D8F4E8F5F8F7E01E5
:1006100011E0F701448155816681778141155105CB
:1006200061057105B9F08C8D9D8DAE8DBF8D841BDC
:10063000950BA60BB70B893E9340A105B10550F071
:10064000612F8AE693E00E94C000F70114821582B0
:1006500016821782F4E0EF0EF11C1F5F1730C9F607
:10066000E881F981008CF18DE02DCE01DF91CF91F1
:100670001F91FF90EF900994109205038AE693E092
:100680000C94F2000895089508950895089508952A
:10069000089508950895089508950895FC01962FEA
:1006A000642F9330A9F028F4913041F0923059F042
:1006B0000895943091F09530A9F008950480F58163
:1006C000E02D808113C00480F581E02D81810EC072
:1006D0000480F581E02D828109C00480F581E02D40
:1006E000838104C00480F581E02D84810C9450093D
:1006F0006150643030F4E62FF0E0E156FE4F608147
:1007000001C060E040E00C944E036150643030F46E
:10071000E62FF0E0E156FE4F608101C060E041E06D
:100720000C944E0340E00C944E0340E00C944E03B6
:1007300041E00C944E03CF93DF93EC01EC81FD81FB
:1007400060E080810E945009EC81FD8160E0818140
:100750000E945009EC81FD8160E082810E94500975
:10076000EC81FD8160E083810E945009EC81FD8174
:1007700060E08481DF91CF910C9450090F931F9317
:10078000CF93DF938C01C62F6170DC011A96ED9137
:10079000FC911B9780810E945009D0E0BE017595A5
:1007A00067956170D8011A96ED91FC911B97818134
:1007B0000E945009BE0175956795759567956170A2
:1007C000D8011A96ED91FC911B9782810E945009E5
:1007D00023E0D595C7952A95E1F76C2F6170D80174
:1007E0001A96ED91FC911B978381DF91CF911F9118
:1007F0000F910C9450090F931F93CF93DF938C01AB
:10080000C62F6170DC011A96ED91FC911B978481D3
:100810000E945009D0E0BE01759567956170D801BE
:100820001A96ED91FC911B9785810E945009BE019B
:1008300075956795759567956170D8011A96ED91D4
:10084000FC911B9786810E94500923E0D595C7959E
:100850002A95E1F76C2F6170D8011A96ED91FC9101
:100860001B978781DF91CF911F910F910C945009B5
:100870002FEF260F243068F4E62FF0E0EE0FFF1F75
:10088000E357FE4F6081718124E630E040E050E0A4
:1008900006C024E630E040E050E06BE572E1FC0188
:1008A00084810C94E30A0C9438040C943804FF926D
:1008B0000F931F93CF93DF931F92CDB7DEB7809135
:1008C0000503882349F0898341E050E060E070E04F
:1008D000CE0101960E94011164EF71E080E090E08A
:1008E0000E94D809F0900503FF2041F11092750392
:1008F0001092760385E093E09093740380937303E2
:1009000000916A0310916B030115110569F0D8017C
:10091000ED91FC910084F185E02D6F2DC8010995C2
:10092000F80102811381F0CFE0917103F09172031D
:100930000680F781E02D81E793E009950F90DF9124
:10094000CF911F910F91FF9008951F93CF93DF9345
:10095000E0910503E436D8F4162F81E08E0F8093E2
:100960000503F0E0EB5FFC4F6183C0916A03D09117
:100970006B03209789F0E881F9810680F781E02DEB
:10098000612FCE0109950A80DB81C02DF2CFDF9166
:10099000CF911F910C945704DF91CF911F9108952F
:1009A0002091730330917403232B21F081E0809315
:1009B00076030895633019F465E00C94A504089556
:1009C0002091730330917403232B21F081E08093F5
:1009D00076030895633089F028F4613049F062307D
:1009E00049F00895653069F050F0663081F008955F
:1009F00061E001C062E00C94A50463E0FCCF64E018
:100A0000FACF80910503882341F00C94570410928B
:100A100005038AE693E00C94F20008954F925F92EA
:100A20006F927F928F929F92AF92BF92CF92DF92FE
:100A3000EF92FF920F931F93CF93DF9310920503D2
:100A40008AE693E00E94F20040E4C42EDD24D394B1
:100A500005E010E1C3EAD2E08881811111C021963E
:100A6000E12EF12C402E712E6F2C1FEF9AE0592EA3
:100A700028EEA22E23E0B22E3CE3832E912C51C00F
:100A80008A3369F3843659F08F36B9F0823659F5D6
:100A90002296CE010E94CB106C019E011CC02296B2
:100AA000CE010E94CB10182F9E01E9012F5F3F4F0E
:100AB000888180538A30C8F3CFCF2296CE010E941E
:100AC000CB10082F9E01E9012F5F3F4F8881805393
:100AD0008A30C8F3C1CFE9012F5F3F4F888180532F
:100AE0008A30C8F3B9CF2196B7CF9A3010F5CE012E
:100AF00017FF1BC00E94CB109C012C9DC0012D9D97
:100B0000900D3C9D900D1124B4010E943E10762E54
:100B1000672E9E01E9012F5F3F4F888180538A3005
:100B2000C8F398819111E1CF6AC00E94CB10482E82
:100B3000F0CF933619F17CF49C3241F12CF49332CE
:100B400009F05BC01F5F59C09136B1F0923609F0D1
:100B500054C013E052C09636A9F03CF4943681F0AC
:100B6000953609F04AC018E048C0973669F09037CA
:100B700009F043C010E041C011E03FC014E03DC0A7
:100B800016E03BC019E039C01AE037C01F3F69F1D9
:100B90008CEF840D853068F51116CCF4842D90E02F
:100BA0000497589EF001599EF00D1124E10FF11D9C
:100BB00017FDFA95EE0FFF1FE150FF4F6081718125
:100BC00020E030E0A901809170030E94E30AC50192
:100BD000672D762D0E943E1080E090E00E94D8099B
:100BE000809170030E945C0A04C0402E7E2C6F2C02
:100BF00004C0402E7E2C6F2C1FEF219692CFDF91E8
:100C0000CF911F910F91FF90EF90DF90CF90BF9009
:100C1000AF909F908F907F906F905F904F900895CE
:100C2000CF93DF93EC01E62FF0E0E952FD4FA8A14E
:100C3000B9A160818D919C910E94940DE8A1F9A1C8
:100C40006AE080819181DF91CF910C94940DCF93D4
:100C5000DF93EC01E62FF0E0E252FD4FA8A1B9A12D
:100C600060818D919C910E94940DE8A1F9A16AE0A8
:100C700080819181DF91CF910C94940DCF93DF937C
:100C8000EC01E8A1F9A166EE72E0808191810E94F9
:100C90009B0DE8A1F9A16BEE72E0808191810E9429
:100CA0009B0DE8A1F9A16AE080819181DF91CF914C
:100CB0000C94940DCF93DF93EC01E8A1F9A166EEBB
:100CC00072E0808191810E949B0DE8A1F9A161EF02
:100CD00072E0808191810E949B0DE8A1F9A16AE0F8
:100CE00080819181DF91CF910C94940D0F931F938C
:100CF000CF93DF93EC01062F142FE8A1F9A166EE44
:100D000072E0808191810E949B0DE8A1F9A165EFBD
:100D100072E0808191810E949B0D402F50E060E045
:100D200070E0E8A1F9A12AE0808191810E944B0D39
:100D3000E8A1F9A16EEF72E0808191810E949B0D84
:100D4000412F50E060E070E0E8A1F9A12AE0808145
:100D500091810E944B0DE8A1F9A16AE08081918107
:100D6000DF91CF911F910F910C94940D1F93CF930E
:100D7000DF93EC01162FE8A1F9A166EE72E0808105
:100D800091810E949B0DE8A1F9A160E073E0808150
:100D900091810E949B0D412F50E060E070E0E8A13E
:100DA000F9A12AE0808191810E944B0DE8A1F9A16F
:100DB0006AE080819181DF91CF911F910C94940D15
:100DC0001F93CF93DF93EC01162FE8A1F9A166EEF4
:100DD00072E0808191810E949B0D412F50E060E084
:100DE00070E0E8A1F9A12AE0808191810E944B0D79
:100DF000E8A1F9A160E2808191810E94940DE12F28
:100E0000F0E0E952FD4FA8A1B9A160818D919C91BC
:100E10000E94940DE8A1F9A16AE080819181DF919F
:100E2000CF911F910C94940D0F931F93CF93DF9349
:100E3000EC018C010E5D1F4FE8A1F9A18081918129
:100E4000DC01ED91FC910480F581E02D0995892B61
:100E500009F44DC0E8A1F9A180819181DC01ED91F7
:100E6000FC910680F781E02D09959DA58A30A1F5BA
:100E7000FE01E90FF11D12A21DA6F801019000204C
:100E8000E9F7CF01029780179107B1F66AA1062E04
:100E9000000C770B8FED92E00E94C010009741F09C
:100EA0008F5D924061E0680F8AE693E00E94C00087
:100EB0006AA1062E000C770B88ED92E00E94C0100C
:100EC000009709F4B9CF885D924061E0680F8AE627
:100ED00093E00E94D900B0CF9A3008F0ADCF21E066
:100EE000290F2DA7FE01E90FF11D82A3A5CFDF91E8
:100EF000CF911F910F910895FC01848DDF01A80F00
:100F0000B11DA35ABF4F2C91848D90E001968F7331
:100F10009927848FA689B7892C93A089B1898C9150
:100F200080648C93938D848D981306C00288F38916
:100F3000E02D80818F7D80830895DC01ED91FC910F
:100F40001197309719F46D937C9308958281938162
:100F5000009711F0FC01FACF738362830895CF9359
:100F6000DF93EC01EA85FB8561E080810E949C09AA
:100F7000EA85FB8561E081810E949C09EA85FB8509
:100F800061E082810E949C09EA85FB8561E08381A2
:100F90000E949C09EA85FB8561E084810E949C098E
:100FA000EA85FB8561E085810E949C09EA85FB85D5
:100FB00061E086810E949C09EA85FB8561E087816A
:100FC0000E949C0988E090E09F878E87998B888B90
:100FD000BE016A5F7F4F8AE693E0DF91CF910C9468
:100FE0009D07BC018AE693E00C949D07CF93DF93A5
:100FF000EC010E94F107E8A1F9A18181811102C0F1
:1010000060E001C062E080810E949C091AA2DF9129
:10101000CF910895CF92DF92EF92FF92CF93DF931B
:10102000EC010E94F107E8A1F9A1C280D380E4801D
:10103000F580C081D181E889F98982E08083C1147B
:1010400081EED806E104F104B1F060E079E08DE3CF
:1010500090E0A70196010E945210DA01C9010197A0
:10106000A109B109B695A795979587959C0121157A
:1010700080E13807A8F0E889F989108260E874E80F
:101080008EE190E0A70196010E945210DA01C90199
:101090000197A109B109B695A795979587959C01E8
:1010A000EC85FD853083EE85FF852083188EEC89E5
:1010B000FD8986E08083EA89FB8980818061808365
:1010C000EA89FB89808188608083EA89FB89808145
:1010D00080688083EA89FB8980818F7D8083DF91AE
:1010E000CF91FF90EF90DF90CF9008953FB7F894A5
:1010F00080919D0390919E03A0919F03B091A003C6
:1011000026B5A89B05C02F3F19F00196A11DB11D62
:101110003FBFBA2FA92F982F8827820F911DA11D9D
:10112000B11DBC01CD0142E0660F771F881F991FDA
:101130004A95D1F70895CF92DF92EF92FF920F93E5
:101140001F93CF93DF936C017A018B01C0E0D0E055
:10115000CE15DF0589F0D8016D918D01D601ED9195
:10116000FC910190F081E02DC6010995892B11F4C5
:101170007E0102C02196ECCFC701DF91CF911F9174
:101180000F91FF90EF90DF90CF90089581EA93E068
:101190000E94AA0021E0892B09F420E0822F089503
:1011A0000E94BB106115710579F0FB0101900020D0
:1011B000E9F73197AF01461B570BDC01ED91FC912C
:1011C0000280F381E02D099480E090E00895EF9291
:1011D000FF920F931F93CF93DF93EC0181E0888FF1
:1011E0009B8D8C8D981305C0E889F989808185FDD8
:1011F00024C0F62E0B8D10E00F5F1F4F0F731127C9
:10120000E02E8C8DE8120CC00FB607FCFACFE889EF
:10121000F989808185FFF5CFCE010E947C07F1CF4F
:101220008B8DFE01E80FF11DE35AFF4FF0820B8F0B
:10123000EA89FB898081806207C0EE89FF8960832B
:10124000E889F98980818064808381E090E0DF9182
:10125000CF911F910F91FF90EF900895CF93DF935F
:10126000EC01888D8823C9F0EA89FB89808185FD9E
:1012700005C0A889B9898C9186FD0FC00FB607FCFF
:10128000F5CF808185FFF2CFA889B9898C9185FF40
:10129000EDCFCE010E947C07E7CFDF91CF9108957B
:1012A00090E0FC01EB55FF4F3491FC01EF56FF4FEE
:1012B0002491FC01E358FF4FE491EE2309F43BC075
:1012C000332339F1333091F038F43130A9F0323032
:1012D00001F584B58F7D12C0373091F03830A1F020
:1012E0003430B9F4809180008F7D03C080918000FC
:1012F0008F77809380000DC084B58F7784BD09C03F
:101300008091B0008F7703C08091B0008F7D809373
:10131000B000F0E0EE0FFF1FED58FF4FA591B49124
:101320008FB7F894EC91611103C020952E2301C072
:101330002E2B2C938FBF0895CF93DF9390E0FC0169
:10134000EF56FF4F2491FC01E358FF4F849188230F
:1013500061F190E0880F991FFC01E759FF4FC5919B
:10136000D491FC01ED58FF4FA591B491611109C0D2
:101370009FB7F8948881209582238883EC912E234F
:101380000BC0623061F49FB7F8943881822F80954A
:1013900083238883EC912E2B2C939FBF06C08FB79D
:1013A000F894E8812E2B28838FBFDF91CF91089589
:1013B0008F929F92AF92BF92CF92DF92EF92FF9265
:1013C0006B017C010E9476084B015C01C114D104C1
:1013D000E104F104F1F00E947608DC01CB018819E8
:1013E0009909AA09BB09883E9340A105B10570F38C
:1013F00021E0C21AD108E108F10888EE880E83E0E6
:10140000981EA11CB11CC114D104E104F10419F708
:10141000DDCFFF90EF90DF90CF90BF90AF909F9087
:101420008F9008951F920F920FB60F9211242F9351
:101430003F938F939F93AF93BF9380919903909124
:101440009A03A0919B03B0919C033091980323E0F1
:10145000230F2D3720F40196A11DB11D05C026E8EC
:10146000230F0296A11DB11D209398038093990329
:1014700090939A03A0939B03B0939C0380919D0348
:1014800090919E03A0919F03B091A0030196A11D8E
:10149000B11D80939D0390939E03A0939F03B093EF
:1014A000A003BF91AF919F918F913F912F910F908A
:1014B0000FBE0F901F90189590910001981324C0B3
:1014C000E8E6F0E0E4919FEF90930001E130B9F09D
:1014D00098F0E230C9F4909170009D7F9093700075
:1014E00091E09093B0009091B100987F94609093B8
:1014F000B1001092B30008C010926E0005C0909128
:101500006F009D7F90936F0060E00C9450091F92D4
:101510000F920FB60F9211242F933F934F935F9327
:101520006F937F938F939F93AF93BF93EF93FF93AB
:101530008091940390919503A0919603B0919703A5
:10154000892B8A2B8B2B51F180919303E09191038E
:10155000F0919203908189278083809194039091E8
:101560009503A0919603B0919703181619061A06D1
:101570001B06C4F48091940390919503A091960367
:10158000B09197030197A109B109809394039093B7
:101590009503A0939603B093970304C08091000134
:1015A0000E945C0AFF91EF91BF91AF919F918F9143
:1015B0007F916F915F914F913F912F910F900FBE4F
:1015C0000F901F9018953F924F925F926F927F926B
:1015D0008F929F92AF92BF92CF92DF92EF92FF9243
:1015E0000F931F93CF93DF9300D000D0CDB7DEB71A
:1015F00090910001981721F09F3F09F036C204C076
:10160000E8E6F0E0349081C080930001E8E6F0E085
:10161000E491EF3F09F429C2E13031F1E23009F4FD
:101620004BC0E11171C014BC15BC94B5926094BD5F
:1016300095B5916095BDA82FB0E0FD01E358FF4F2F
:10164000E491F0E0EE0FFF1FED58FF4F059114916C
:101650001093880300938703FD01EF56FF4FE49139
:10166000E0938603312C53C01092800010928100C9
:101670009091810098609093810090918100916099
:1016800090938100A82FB0E0FD01E358FF4FE49153
:10169000F0E0EE0FFF1FED58FF4F059114911093EE
:1016A000850300938403FD01EF56FF4FE491E0931F
:1016B0008303332433942BC01092B0001092B100F6
:1016C0009091B00092609093B0009091B1009160C1
:1016D0009093B100A82FB0E0FD01E358FF4FE491D3
:1016E000F0E0EE0FFF1FED58FF4F0591149110939E
:1016F000920300939103FD01EF56FF4FE491E093B5
:10170000930302E0302E03C03E2E37FCAEC1290108
:101710003A018B0161E00E949C094801A12CB12C87
:10172000832D8D7F09F0BBC060E072E18AE790E015
:10173000A50194010E94741029833A834B835C8332
:1017400069017A0121E0C21AD108E108F1088FEF9E
:10175000C816D104E104F10409F008F44CC060E4B7
:1017600072E48FE090E0A50194010E947410690179
:101770007A01E1E0CE1AD108E108F108F2E03F1267
:1017800020C02FEFC216D104E104F10409F008F4DF
:101790006AC160E970ED83E090E0A50194010E94C8
:1017A000741069017A0181E0C81AD108E108F108D2
:1017B000EFEFCE16D104E104F10409F0D0F583E097
:1017C00067C0FFEFCF16D104E104F104B1F0A8F037
:1017D00068E478EE81E090E0A50194010E94741025
:1017E00069017A0181E0C81AD108E108F1083320C3
:1017F00009F4DFC02FC181E001C082E03320A1F0F5
:1018000047C089819A81AB81BC812AE0B595A795B3
:10181000979587952A95D1F76C017D0121E0C21A31
:10182000D108E108F10885E095B5987F892B85BD41
:101830006FC068E478EE81E090E0A50194010E9419
:10184000741069017A01F1E0CF1AD108E108F108BA
:101850002FEFC216D104E104F10409F008F4A7C087
:1018600064E274EF80E090E0A50194010E9474109E
:1018700069017A01E1E0CE1AD108E108F108FFEF31
:10188000CF16D104E104F10411F008F0B4C085E0F2
:101890009091B100987F892B8093B10039C060E0AE
:1018A00072E18AE790E0A50194010E947410690139
:1018B0007A0181E0C81AD108E108F108C114D10405
:1018C000E1E0EE06F10488F068E478EE81E090E073
:1018D000A50194010E94741069017A01F1E0CF1A08
:1018E000D108E108F10893E001C091E021E0321253
:1018F0000FC080918100887F892B809381004114E3
:1019000051046104710449F42FEF3FEFA9012DC088
:10191000411451046104710471F0D801AA0FBB1F76
:10192000A30192010E94931028EE33E040E050E0C2
:101930000E94521003C02FEF3FEFA90181E038163B
:10194000A1F0E2E03E1619F131108FC0C7BC209320
:101950008D0330938E0340938F03509390038091B7
:101960006E00826080936E0080C0D0928900C09229
:1019700088002093890330938A0340938B0350930C
:101980008C0380916F00826080936F006EC0C09264
:10199000B3002093940330939503409396035093A0
:1019A0009703809170008260809370005EC084E035
:1019B0006FCFFFEFCF16D104E104F104D1F0C8F0EE
:1019C00062E17AE780E090E0A50194010E94741042
:1019D00069017A0181E0C81AD108E108F108EFEF46
:1019E000CE16D104E104F10411F008F00ACF84E02E
:1019F0001BCF83E019CF62E17AE780E090E0A50198
:101A000094010E94741069017A0181E0C81AD1081A
:101A1000E108F108EFEFCE16D104E104F104C1F0C2
:101A2000B8F089819A81AB81BC814AE0B595A795D0
:101A3000979587954A95D1F76C017D0121E0C21AEF
:101A4000D108E108F108332009F4EDCE87E020CF7A
:101A500086E0D4CEFFEFCF16D104E104F10409F003
:101A600050F684E0CBCE82E013CF0F900F900F9012
:101A70000F90DF91CF911F910F91FF90EF90DF902A
:101A8000CF90BF90AF909F908F907F906F905F901E
:101A90004F903F9008954F925F926F927F92EF9296
:101AA000FF920F931F93CF93DF93CDB7DEB7A1972C
:101AB0000FB6F894DEBF0FBECDBF7C01FA01CB019B
:101AC00019A2223008F42AE08E010F5D1F4F422E2A
:101AD000512C612C712CBF01A30192010E94521064
:101AE000F901CA01015011096A3014F4605D01C0A6
:101AF000695CD8016C93232B242B252B61F7B8014B
:101B0000C7010E94D208A1960FB6F894DEBF0FBE9F
:101B1000CDBFDF91CF911F910F91FF90EF907F90FC
:101B20006F905F904F900895DC01ED91FC910190D2
:101B3000F081E02D09940C94D2081F920F920FB6F9
:101B40000F9211242F933F934F935F936F937F9343
:101B50008F939F93AF93BF93EF93FF9381EA93E0AB
:101B60000E947C07FF91EF91BF91AF919F918F9160
:101B70007F916F915F914F913F912F910F900FBE89
:101B80000F901F9018951F920F920FB60F9211246D
:101B90002F938F939F93EF93FF93E091B103F09175
:101BA000B2038081E091B703F091B80382FD12C0C7
:101BB00090818091BA038F5F8F732091BB0382174E
:101BC00051F0E091BA03F0E0EF55FC4F958F809310
:101BD000BA0301C08081FF91EF919F918F912F9166
:101BE0000F900FBE0F901F901895FF920F931F93A9
:101BF000CF93DF93DC0112962D913C911397232B09
:101C000009F4A3C0EC01888999890097B1F58E8504
:101C10009F85892B09F053C060E0CD010E94BE036F
:101C200060E0CE010E94FB03EA81FB818C81E80F1A
:101C3000F11DF18000916A0310916B0301151105EC
:101C400069F0D801ED91FC910480F581E02D6F2DB4
:101C5000C8010995F80102811381F0CF8C818F5F53
:101C60008C83E881F9810680F781E02DCE01DF9138
:101C7000CF911F910F91FF9009941816190614F037
:101C80001FEF01C011E0EC850E2E000CFF0BE95692
:101C9000FE4F6081CE010E94BE038C85885F810F5C
:101CA000877887FF03C08150886F8F5F8C87888912
:101CB0009989811B910917FD9395998B888B8E8546
:101CC0009F85009701F114F41FEF01C011E0ED852D
:101CD0000E2E000CFF0BE956FE4F6081CE010E94D4
:101CE000FB038D85885F810F877887FF03C0815054
:101CF000886F8F5F8D878E859F85811B910917FD6A
:101D000093959F878E878D81882329F01F861E8655
:101D1000198A188A1AC0EA85FB8520853185032E29
:101D2000000C440B550B60E472E48FE090E00E94DD
:101D300074102230310548F0220F331F220F331F59
:101D400025503109C9010197F1F7DF91CF911F911A
:101D50000F91FF90089506970C94F50DE1EAF3E0DA
:101D60001382128288EE93E0A0E0B0E08483958332
:101D7000A683B7838FEA91E09183808385EC90E01E
:101D80009587848784EC90E09787868780EC90E045
:101D9000918B808B81EC90E0938B828B82EC90E036
:101DA000958B848B86EC90E0978B868B118E128EB0
:101DB000138E148EEEE3F4E0138212828FEB91E027
:101DC00091838083E1E7F3E013821282148215820B
:101DD0001186108687E592E09183808385E692E004
:101DE0009783868384E992E0938782871786168695
:101DF000118A108A14861586E6E7F4E013821282AF
:101E00001482158216821782108611861286138616
:101E10001486158616861786108A118A128A138AE6
:101E2000148A158A168A178A108E118E128E138EB6
:101E3000148E158E168E178E89E392E0918380831F
:101E400086E892E091A380A3E8E4F4E01382128292
:101E500014821582168217821086118612861386C6
:101E60001486158616861786108A118A128A138A96
:101E7000148A158A168A178A108E118E128E138E66
:101E8000148E158E168E178E8DE092E091838083CE
:101E900080E892E091A380A315A6ECE6F3E013821C
:101EA000128283EF91E0918380838AE08483E2E46D
:101EB000F4E01382128289ED91E0918380838BE7B5
:101EC00092E09583848310926B0310926A031092C0
:101ED00005030895789484B5826084BD84B58160DB
:101EE00084BD85B5826085BD85B5816085BD8091E5
:101EF0006E00816080936E0010928100809181005D
:101F00008260809381008091810081608093810054
:101F1000809180008160809380008091B100846016
:101F20008093B1008091B00081608093B000809177
:101F30007A00846080937A0080917A008260809336
:101F40007A0080917A00816080937A0080917A0093
:101F5000806880937A001092C100E0917103F09143
:101F600072030190F081E02D81E793E00995E09103
:101F70007604F09177040688F789E02D86E794E0EF
:101F8000099588E494E00E940A0861E0809170035A
:101F90000E949C096CE673E08AE693E00E949D072C
:101FA00024E630E040E050E06BE572E180917003A0
:101FB0000E94E30AE0914604F091470461E08081C9
:101FC0000E949C09E0914604F091470461E0818100
:101FD0000E949C09E0914604F091470461E08281EF
:101FE0000E949C09E0914604F091470461E08381DE
:101FF0000E949C09E0914604F091470461E08481CD
:102000000E949C0962E474E08AE693E00E949D07C6
:1020100041E050E060E070E085E093E00E94F11064
:10202000109205036EE374E08AE693E00E949D0738
:102030000E9476086B017C01C0916A03D0916B030A
:10204000209769F0E881F9810190F081E02DB701D6
:10205000A601CE0109950A80DB81C02DF1CF8091C8
:10206000730390917403892B31F46AE070E080E08F
:1020700090E00E94D8090E94B600DACFAA1BBB1BD1
:1020800051E107C0AA1FBB1FA617B70710F0A61B78
:10209000B70B881F991F5A95A9F780959095BC0199
:1020A000CD010895A1E21A2EAA1BBB1BFD010DC094
:1020B000AA1FBB1FEE1FFF1FA217B307E407F507F8
:1020C00020F0A21BB30BE40BF50B661F771F881FD4
:1020D000991F1A9469F760957095809590959B016A
:1020E000AC01BD01CF010895052E97FB1EF40094AD
:1020F0000E948B1057FD07D00E94521007FC03D09E
:102100004EF40C948B1050954095309521953F4F8F
:102110004F4F5F4F089590958095709561957F4FD3
:102120008F4F9F4F08950E94AC10A59F900DB49FB4
:10213000900DA49F800D911D11240895B7FF0C945C
:1021400093100E949310821B930B0895EE0FFF1FB4
:102150000590F491E02D0994A29FB001B39FC001B6
:10216000A39F700D811D1124911DB29F700D811DC3
:102170001124911D089581E090E0F8940C941911B8
:10218000FC018191861721F08823D9F799270895BA
:102190003197CF010895FC0188279927E894219170
:1021A0002032E9F3293010F02E30C8F32B3241F001
:1021B0002D3239F4689404C00E94E910820F911DF9
:1021C000219120532A30C0F31EF4909581959F4FA2
:1021D00008957AE0979F902D879F802D910D11246F
:1021E0000895DC01CB01FC01F999FECF06C0F2BDD8
:1021F000E1BDF89A319600B40D9241505040B8F7C5
:102200000895DC01CB0103C02D910E940C114150B7
:102210005040D0F70895262FF999FECF1FBA92BDEE
:1022200081BD20BD0FB6F894FA9AF99A0FBE0196B7
:062230000895F894FFCFB1
:10223600FFB801D201EE010B022A024B026E029395
:1022460002BA02E40210033F037003A403DB031681
:102256000454049604DC0426057405C7051F067D90
:1022660006E0064807B7072D08A9082D09B9094D44
:102276000AE90A8F0B3F0CFA0CC00D910E6F0F5A2C
:102286001052115A1272139A14D3151F177F18F48D
:1022960019801B221DDE1EB420A522B524E4263497
:1022A60029A72B3F2EFF30E9330037453ABC3D685E
:1022B600414B456A49C84D68524E577F5CFF614D98
:1022C6000A5211C00DA90801030206040C080901EF
:1022D6000203040403050371036A0300000000E718
:1022E600089B08AA0088009C002E090000000043F5
:1022F600034D034C034B034A030E0548033C0342BC
:1023060003E004D004000000004303850378034B78
:10231600034A03490348039B03980395039203006A
:10232600000000430353044C034B034A034903488C
:1023360003470346035504440300000000F5024D1D
:10234600034C034B034A034903480347034603452B
:102356000344030A08140727061006E006B6065AC1
:10236600063E06760600000000F5024D034C034BC0
:10237600034A03490348034703460345034403F658
:1023860007E80100000000AF07C801B4010701F526
:102396000DFAFF0000AB0E4D034C034B034A0349F5
:1023A60003480347034603450344030E11100F0D6C
:1023B600A10380250000150100025C030103AB02A6
:1023C6002A0300000908070605040302E803CA06F3
:1023D60000043A643D31362C6F3D362C623D383070
:1023E600303A662C34702C662C34702C662C347083
:1023F6002C662C34702C632C34702C632C34702C8B
:10240600632C34702C632C006E6573776772004EF4
:102416004553574752005052473A00524553455488
:1024260000454E440041424F5254454420002F007F
:04243600474F2000EC
:00000001FF
