:100000000C945E000C9486000C9486000C94860080
:100010000C9486000C9486000C9486000C94940A30
:100020000C9486000C9486000C9486000C94860038
:100030000C9486000C9486000C9486000C94860028
:100040000C941F0A0C9486000C94D00D0C94AA0DED
:100050000C9486000C9486000C9486000C94860008
:100060000C9486000C9486000200000000240027F7
:10007000002A0000000000250028002B00040404D2
:100080000404040404020202020202030303030341
:10009000030102040810204080010204081020011E
:1000A0000204081020000000080002010000030400
:1000B00007000000000000000000B70E11241FBE62
:1000C000CFEFD8E0DEBFCDBF13E0A0E0B1E0EEEFB0
:1000D000F1E202C005900D92A630B107D9F724E0F5
:1000E000A6E0B3E001C01D92AE39B207E1F710E01F
:1000F000CEE5D0E004C02197FE010E94C110CD35AD
:10010000D107C9F70E94790F0C94FD100C940000E0
:10011000FC01918D828D981761F0828DDF01A80F0F
:10012000B11D5D968C91928D9F5F9F73928F90E031
:1001300008958FEF9FEF0895FC01918D828D9817A0
:1001400031F0828DE80FF11D858D90E008958FEFDD
:100150009FEF0895FC01918D228D892F90E0805CA6
:100160009F4F821B91098F739927089580E090E03B
:10017000892B29F00E94D30881110C940000089566
:100180001F93CF93DF93162FFC01C081D18120975D
:1001900061F0E881F9810488F589E02D612FCE01B5
:1001A00009950A80DB81C02DF2CFDF91CF911F919D
:1001B00008951F93CF93DF93162FFC01C081D18147
:1001C000209761F0E881F9810288F389E02D612FA1
:1001D000CE0109950A80DB81C02DF2CFDF91CF914E
:1001E0001F910895CF93DF93FC01C081D1812097A7
:1001F00059F0E881F9810484F585E02DCE01099557
:100200000A80DB81C02DF3CFDF91CF910895FC01EF
:10021000A485B5851A964D915C911B976403900156
:10022000659F300D1124318B208B3195219531093B
:10023000338B228B0895CF93DF93EC01EC85FD8502
:1002400024853585319521953109DB010E9498106F
:100250002AE530E040E050E00E947910398B288B8D
:100260003B8B2A8BDF91CF910895CF92DF92EF9253
:10027000FF920F931F93CF93DF931F92CDB7DEB7FB
:100280006C01DC0117962C9117971496ED91FC9157
:1002900015971696FC9090916B0380916C03222326
:1002A000D1F0E080092F182F0115110571F0D80148
:1002B000ED91FC910684F785E02D4E2D6F2DC80140
:1002C0000995F80102811381EFCFD60115961C9292
:1002D0001E92149775C02081F21215C0F601158286
:1002E0001482092F182F0115110509F469C0D801CE
:1002F000ED91FC910284F385E02DC8010995F80188
:1003000002811381F0CFEF0DF11D2181092F182FEC
:100310000115110579F0D801ED91FC910280F3816E
:10032000E02D622FC80129830995F801028113810C
:100330002981EECF2230E1F058F4213009F040C09D
:10034000D601ED91FC910480F581E02D61E02DC096
:10035000233021F12430A1F5D601ED91FC911197C4
:1003600012966D917C91139771956195710908C0F2
:10037000D601ED91FC91119712966D917C91139796
:100380000280F381E02DC6010F90DF91CF911F9184
:100390000F91FF90EF90DF90CF900994D601ED91EF
:1003A000FC910480F581E02D6FEFC6010F90DF9185
:1003B000CF911F910F91FF90EF90DF90CF90099414
:1003C0000F90DF91CF911F910F91FF90EF90DF90F1
:1003D000CF9008958F929F92AF92BF92EF92FF922B
:1003E0000F931F93CF93DC019096ED91FC91919721
:1003F00090819E3008F09E509770906490937C009E
:1004000080917A00806480937A0080917A0086FDE2
:10041000FCCF209178008091790030E0382B2F3D7F
:1004200063E0360724F0A9014E5D534004C04EED51
:1004300053E0421B530B9096ED91FC919197828172
:100440009381B901681B790BCB0177FF03C09195AC
:1004500081959109841795071CF4AC01C1E001C096
:10046000C0E084819581B901681B790BCB0177FFCE
:1004700003C09195819591098417950714F4AC01F7
:10048000C2E086819781B901681B790BCB0177FFA8
:1004900003C09195819591098417950714F4AC01D7
:1004A000C3E080859185B901681B790BCB0177FF8B
:1004B00003C09195819591098417950714F4AC01B7
:1004C000C4E082859385B901681B790BCB0177FF66
:1004D00003C09195819591098417950714F4AC0197
:1004E000C5E084859585281B390B37FF03C03195FE
:1004F00021953109241735070CF4C6E092966C91CA
:100500009297C61709F469C08D01662391F18FEFA8
:10051000860F7D0174E0879FE00CF11C1124D70148
:1005200014968D909D90AD90BC9017978114910476
:10053000A104B104F1F0F801848D958DA68DB78DDD
:1005400088199909AA09BB098F319105A105B1053F
:1005500080F0883E9340A105B10520F48BE693E03E
:100560000E94D900D70114961D921D921D921C92D3
:100570001797C11103C0F801C2A32FC08FEF8C0FD2
:100580009801F4E08F9F200D311D1124F901848121
:100590009581A681B781892B8A2B8B2B61F7F80176
:1005A000848D958DA68DB78DF90184839583A6835F
:1005B000B783E0906B03F0906C03E114F104D9F27F
:1005C000D701ED91FC910088F189E02D6C2FC701D6
:1005D0000995F701E280F380F0CFCF911F910F9141
:1005E000FF90EF90BF90AF909F908F900895EF9203
:1005F000FF921F93CF93DF93EC01CB01BA0128EE5A
:1006000033E040E050E00E9457102C8F3D8F4E8F1A
:100610005F8F7E0111E0F70144815581668177810A
:100620004115510561057105B9F08C8D9D8DAE8D1B
:10063000BF8D841B950BA60BB70B893E9340A1057C
:10064000B10550F0612F8BE693E00E94C000F701E6
:100650001482158216821782F4E0EF0EF11C1F5FE0
:100660001730C9F6E881F981008CF18DE02DCE01BB
:10067000DF91CF911F91FF90EF90099410920603A4
:100680008BE693E00C94F200089508950895089580
:100690000895089508950895089508950895089572
:1006A000FC01962F642F9330A9F028F4913041F08B
:1006B000923059F00895943091F09530A9F0089552
:1006C0000480F581E02D808113C00480F581E02D48
:1006D00081810EC00480F581E02D828109C00480F3
:1006E000F581E02D838104C00480F581E02D8481B3
:1006F0000C945D096150643030F4E62FF0E0EA5567
:10070000FE4F608101C060E040E00C9450036150F6
:10071000643030F4E62FF0E0EA55FE4F608101C00E
:1007200060E041E00C94500340E00C94500340E042
:100730000C94500341E00C945003CF93DF93EC01F1
:10074000EC81FD8160E080810E945D09EC81FD818A
:1007500060E081810E945D09EC81FD8160E0828121
:100760000E945D09EC81FD8160E083810E945D094A
:10077000EC81FD8160E08481DF91CF910C945D0973
:100780000F931F93CF93DF938C01C62F6170DC0111
:100790001C96ED91FC911D9780810E945D09D0E02F
:1007A000BE01759567956170D8011C96ED91FC911D
:1007B0001D9781810E945D09BE01759567957595AC
:1007C00067956170D8011C96ED91FC911D9782810F
:1007D0000E945D0923E0D595C7952A95E1F76C2F16
:1007E0006170D8011C96ED91FC911D978381DF917A
:1007F000CF911F910F910C945D090F931F93CF938D
:10080000DF938C01C62F6170DC011C96ED91FC9189
:100810001D9784810E945D09D0E0BE0175956795A2
:100820006170D8011C96ED91FC911D9785810E9405
:100830005D09BE0175956795759567956170D801DD
:100840001C96ED91FC911D9786810E945D0923E025
:10085000D595C7952A95E1F76C2F6170D8011C9644
:10086000ED91FC911D978781DF91CF911F910F91A1
:100870000C945D092FEF260F243068F4E62FF0E08A
:10088000EE0FFF1FEC56FE4F6081718124E630E0D1
:1008900040E050E006C024E630E040E050E06BE588
:1008A00072E1FC0184810C94F00A0C943A040C94DB
:1008B0003A04FF920F931F93CF93DF932091060387
:1008C000222331F020910603222309F44AC017C0E5
:1008D000DC0114962D913C911597232B99F74FE845
:1008E00051E0DA01EA2FE41B2D91222329F0F0E0F8
:1008F000EA5FFC4F2183F6CFE0930603E3CFEC01E0
:1009000064EF71E080E090E00E94E509F09006035A
:10091000FF2011F1109278031092790386E093E0A2
:10092000909377038093760300916B0310916C038F
:100930000115110569F0D801ED91FC910084F18554
:10094000E02D6F2DC8010995F80102811381F0CFC8
:1009500082E793E00E9435018C819D8101969D8301
:100960008C83DF91CF911F910F91FF9008951F937A
:10097000CF93DF93E0910603E436D8F4162F81E09D
:100980008E0F80930603F0E0EA5FFC4F6183C09115
:100990006B03D0916C03209789F0E881F981068080
:1009A000F781E02D612FCE0109950A80DB81C02DF2
:1009B000F2CFDF91CF911F910C945904DF91CF9129
:1009C0001F9108952091760330917703232B21F016
:1009D00081E0809379030895633019F465E00C9405
:1009E000B70408952091760330917703232B21F0EB
:1009F00081E0809379030895633089F028F46130B1
:100A000049F0623049F00895653069F050F0663081
:100A100061F0089561E001C062E00C94B70463E006
:100A2000FCCF64E0FACF0C945904109206038BE6D5
:100A300093E00C94F2004F925F926F927F928F92AC
:100A40009F92AF92BF92CF92DF92EF92FF920F935D
:100A50001F93CF93DF93109206038BE693E00E94DF
:100A6000F20040E4C42EDD24D39405E010E1C4EA92
:100A7000D2E08881811111C02196E12EF12C402E07
:100A8000712E6F2C1FEF9AE0592E28EEA22E23E034
:100A9000B22E3CE3832E912C51C08A3369F3843605
:100AA00059F08F36B9F0823659F52296CE010E9460
:100AB000D7106C019E011CC02296CE010E94D71057
:100AC000182F9E01E9012F5F3F4F888180538A30A4
:100AD000C8F3CFCF2296CE010E94D710082F9E01D7
:100AE000E9012F5F3F4F888180538A30C8F3C1CF1F
:100AF000E9012F5F3F4F888180538A30C8F3B9CF17
:100B00002196B7CF9A3010F5CE0117FF1BC00E9477
:100B1000D7109C012C9DC0012D9D900D3C9D900DEA
:100B20001124B4010E944310762E672E9E01E90124
:100B30002F5F3F4F888180538A30C8F3988191118D
:100B4000E1CF6AC00E94D710482EF0CF933619F13A
:100B50007CF49C3241F12CF4933209F05BC01F5FAE
:100B600059C09136B1F0923609F054C013E052C02A
:100B70009636A9F03CF4943681F0953609F04AC0D7
:100B800018E048C0973669F0903709F043C010E08C
:100B900041C011E03FC014E03DC016E03BC019E089
:100BA00039C01AE037C01F3F69F18CEF840D8530E2
:100BB00068F51116CCF4842D90E00497589EF0014E
:100BC000599EF00D1124E10FF11D17FDFA95EE0F5E
:100BD000FF1FE150FF4F6081718120E030E0A901EB
:100BE000809171030E94F00AC501672D762D0E9445
:100BF000431080E090E00E94E509809171030E941B
:100C0000690A04C0402E7E2C6F2C04C0402E7E2C1E
:100C10006F2C1FEF219692CFDF91CF911F910F91F3
:100C2000FF90EF90DF90CF90BF90AF909F908F900C
:100C30007F906F905F904F900895CF93DF93EC017A
:100C4000E62FF0E0E852FD4FA8A1B9A160818D9197
:100C50009C910E94A10DE8A1F9A16AE08081918197
:100C6000DF91CF910C94A10DCF93DF93EC01E62F90
:100C7000F0E0E152FD4FA8A1B9A160818D919C9156
:100C80000E94A10DE8A1F9A16AE080819181DF9124
:100C9000CF910C94A10DCF93DF93EC01E8A1F9A1C2
:100CA00067EE72E0808191810E94A80DE8A1F9A110
:100CB0006CEE72E0808191810E94A80DE8A1F9A1FB
:100CC0006AE080819181DF91CF910C94A10DCF9347
:100CD000DF93EC01E8A1F9A167EE72E080819181D8
:100CE0000E94A80DE8A1F9A162EF72E080819181D4
:100CF0000E94A80DE8A1F9A16AE080819181DF91AD
:100D0000CF910C94A10D0F931F93CF93DF93EC0120
:100D1000062F142FE8A1F9A167EE72E0808191817E
:100D20000E94A80DE8A1F9A166EF72E0808191818F
:100D30000E94A80D402F50E060E070E0E8A1F9A10A
:100D40002AE0808191810E94580DE8A1F9A16FEFFE
:100D500072E0808191810E94A80D412F50E060E0F7
:100D600070E0E8A1F9A12AE0808191810E94580DEC
:100D7000E8A1F9A16AE080819181DF91CF911F9173
:100D80000F910C94A10D1F93CF93DF93EC01162FBD
:100D9000E8A1F9A167EE72E0808191810E94A80D1F
:100DA000E8A1F9A161E073E0808191810E94A80D22
:100DB000412F50E060E070E0E8A1F9A12AE08081D5
:100DC00091810E94580DE8A1F9A16AE0808191818A
:100DD000DF91CF911F910C94A10D1F93CF93DF93BF
:100DE000EC01162FE8A1F9A167EE72E080819181F4
:100DF0000E94A80D412F50E060E070E0E8A1F9A149
:100E00002AE0808191810E94580DE8A1F9A160E259
:100E1000808191810E94A10DE12FF0E0E852FD4F09
:100E2000A8A1B9A160818D919C910E94A10DE8A11A
:100E3000F9A16AE080819181DF91CF911F910C949B
:100E4000A10D0F931F93CF93DF93EC018C010E5DE7
:100E50001F4FE8A1F9A180819181DC01ED91FC9106
:100E60000480F581E02D0995892B09F44DC0E8A196
:100E7000F9A180819181DC01ED91FC910680F781DF
:100E8000E02D09959DA58A30A1F5FE01E90FF11D20
:100E900012A21DA6F80101900020E9F7CF010297E8
:100EA00080179107B1F66AA1062E000C770B80EE31
:100EB00092E00E94CC10009741F0805E924061E089
:100EC000680F8BE693E00E94C0006AA1062E000C1A
:100ED000770B89ED92E00E94CC10009709F4B9CF0E
:100EE000895D924061E0680F8BE693E00E94D90033
:100EF000B0CF9A3008F0ADCF21E0290F2DA7FE0129
:100F0000E90FF11D82A3A5CFDF91CF911F910F9122
:100F10000895FC01848DDF01A80FB11DA35ABF4FB6
:100F20002C91848D90E001968F739927848FA689E8
:100F3000B7892C93A089B1898C9180648C93938D0F
:100F4000848D981306C00288F389E02D80818F7DFF
:100F500080830895DC01ED91FC911197309719F48D
:100F60006D937C93089582819381009711F0FC0129
:100F7000FACF738362830895CF93DF93EC01EC85FE
:100F8000FD8561E080810E94A909EC85FD8561E015
:100F900081810E94A909EC85FD8561E082810E9422
:100FA000A909EC85FD8561E083810E94A909EC8592
:100FB000FD8561E084810E94A909EC85FD8561E0E1
:100FC00085810E94A909EC85FD8561E086810E94EA
:100FD000A909EC85FD8561E087810E94A90988E067
:100FE00090E0998B888B9B8B8A8BBE01685F7F4FCB
:100FF0008BE693E0DF91CF910C94AA07BC018BE6BE
:1010000093E00C94AA07CF93DF93EC010E94FE07B4
:10101000E8A1F9A18181811102C060E001C062E014
:1010200080810E94A9091AA2DF91CF910895CF92E1
:10103000DF92EF92FF92CF93DF93EC010E94FE07C5
:10104000E8A1F9A1C280D380E480F580C081D1817C
:10105000E889F98982E08083C11481EED806E10431
:10106000F104B1F060E079E08DE390E0A701960132
:101070000E945710DA01C9010197A109B109B6957B
:10108000A795979587959C01211580E13807A8F0D1
:10109000E889F989108260E874E88EE190E0A701A0
:1010A00096010E945710DA01C9010197A109B109FF
:1010B000B695A795979587959C01EC85FD8530831E
:1010C000EE85FF852083188EEC89FD8986E080837C
:1010D000EA89FB89808180618083EA89FB8980813C
:1010E00088608083EA89FB89808180688083EA89BF
:1010F000FB8980818F7D8083DF91CF91FF90EF907E
:10110000DF90CF9008953FB7F8948091A00390911D
:10111000A103A091A203B091A30326B5A89B05C08B
:101120002F3F19F00196A11DB11D3FBFBA2FA92F66
:10113000982F8827820F911DA11DB11DBC01CD01E3
:1011400042E0660F771F881F991F4A95D1F70895CF
:10115000CF92DF92EF92FF920F931F93CF93DF9383
:101160006C017A018B01C0E0D0E0CE15DF0589F07B
:10117000D8016D918D01D601ED91FC910190F08126
:10118000E02DC6010995892B11F47E0102C021963C
:10119000ECCFC701DF91CF911F910F91FF90EF909E
:1011A000DF90CF90089584EA93E00E94AA0021E0A6
:1011B000892B09F420E0822F08950E94C710611541
:1011C000710579F0FB0101900020E9F73197AF013B
:1011D000461B570BDC01ED91FC910280F381E02D61
:1011E000099480E090E00895EF92FF920F931F938F
:1011F000CF93DF93EC0181E0888F9B8D8C8D9813CA
:1012000005C0E889F989808185FD24C0F62E0B8D03
:1012100010E00F5F1F4F0F731127E02E8C8DE81227
:101220000CC00FB607FCFACFE889F989808185FFE9
:10123000F5CFCE010E948907F1CF8B8DFE01E80F1B
:10124000F11DE35AFF4FF0820B8FEA89FB89808101
:10125000806207C0EE89FF896083E889F98980810F
:101260008064808381E090E0DF91CF911F910F91A6
:10127000FF90EF900895CF93DF93EC01888D882342
:10128000C9F0EA89FB89808185FD05C0A889B989F3
:101290008C9186FD0FC00FB607FCF5CF808185FFCE
:1012A000F2CFA889B9898C9185FFEDCFCE010E943C
:1012B0008907E7CFDF91CF91089590E0FC01EB55CE
:1012C000FF4F3491FC01EF56FF4F2491FC01E3588E
:1012D000FF4FE491EE2309F43BC0332339F133305F
:1012E00091F038F43130A9F0323001F584B58F7DBA
:1012F00012C0373091F03830A1F03430B9F4809119
:1013000080008F7D03C0809180008F778093800064
:101310000DC084B58F7784BD09C08091B0008F77F0
:1013200003C08091B0008F7D8093B000F0E0EE0F9D
:10133000FF1FED58FF4FA591B4918FB7F894EC9132
:10134000611103C020952E2301C02E2B2C938FBF3B
:101350000895CF93DF9390E0FC01EF56FF4F249167
:10136000FC01E358FF4F8491882361F190E0880FDE
:10137000991FFC01E759FF4FC591D491FC01ED582D
:10138000FF4FA591B491611109C09FB7F89488816E
:10139000209582238883EC912E230BC0623061F468
:1013A0009FB7F8943881822F809583238883EC91AE
:1013B0002E2B2C939FBF06C08FB7F894E8812E2B5D
:1013C00028838FBFDF91CF9108958F929F92AF9224
:1013D000BF92CF92DF92EF92FF926B017C010E944D
:1013E00083084B015C01C114D104E104F104F1F064
:1013F0000E948308DC01CB0188199909AA09BB095D
:10140000883E9340A105B10570F321E0C21AD108CE
:10141000E108F10888EE880E83E0981EA11CB11C3B
:10142000C114D104E104F10419F7DDCFFF90EF906E
:10143000DF90CF90BF90AF909F908F9008951F92B4
:101440000F920FB60F9211242F933F938F939F9378
:10145000AF93BF9380919C0390919D03A0919E03B5
:10146000B0919F0330919B0323E0230F2D3720F48D
:101470000196A11DB11D05C026E8230F0296A11DEE
:10148000B11D20939B0380939C0390939D03A09395
:101490009E03B0939F038091A0039091A103A0911C
:1014A000A203B091A3030196A11DB11D8093A003D7
:1014B0009093A103A093A203B093A303BF91AF9114
:1014C0009F918F913F912F910F900FBE0F901F9082
:1014D000189590910001981324C0E8E6F0E0E4919B
:1014E0009FEF90930001E130B9F098F0E230C9F439
:1014F000909170009D7F9093700091E09093B00068
:101500009091B100987F94609093B1001092B300D5
:1015100008C010926E0005C090916F009D7F90935F
:101520006F0060E00C945D091F920F920FB60F924E
:1015300011242F933F934F935F936F937F938F93D8
:101540009F93AF93BF93EF93FF93809197039091F5
:101550009803A0919903B0919A03892B8A2B8B2B26
:1015600051F180919603E0919403F091950390815D
:10157000892780838091970390919803A091990384
:10158000B0919A03181619061A061B06C4F4809126
:10159000970390919803A0919903B0919A030197B2
:1015A000A109B1098093970390939803A09399039D
:1015B000B0939A0304C0809100010E94690AFF91D0
:1015C000EF91BF91AF919F918F917F916F915F91BB
:1015D0004F913F912F910F900FBE0F901F90189534
:1015E0003F924F925F926F927F928F929F92AF92B3
:1015F000BF92CF92DF92EF92FF920F931F93CF9300
:10160000DF9300D000D0CDB7DEB7909100019817DE
:1016100021F09F3F09F036C204C0E8E6F0E03490C4
:1016200081C080930001E8E6F0E0E491EF3F09F427
:1016300029C2E13031F1E23009F44BC0E11171C04F
:1016400014BC15BC94B5926094BD95B5916095BDE0
:10165000A82FB0E0FD01E358FF4FE491F0E0EE0F5A
:10166000FF1FED58FF4F0591149110938B030093CA
:101670008A03FD01EF56FF4FE491E0938903312C7B
:1016800053C0109280001092810090918100986068
:101690009093810090918100916090938100A82F98
:1016A000B0E0FD01E358FF4FE491F0E0EE0FFF1FC3
:1016B000ED58FF4F05911491109388030093870311
:1016C000FD01EF56FF4FE491E093860333243394FA
:1016D0002BC01092B0001092B1009091B0009260B7
:1016E0009093B0009091B10091609093B100A82FB9
:1016F000B0E0FD01E358FF4FE491F0E0EE0FFF1F73
:10170000ED58FF4F059114911093950300939403A6
:10171000FD01EF56FF4FE491E093960302E0302E77
:1017200003C03E2E37FCAEC129013A018B0161E0B6
:101730000E94A9094801A12CB12C832D8D7F09F0AD
:10174000BBC060E072E18AE790E0A50194010E94CD
:10175000791029833A834B835C8369017A0121E004
:10176000C21AD108E108F1088FEFC816D104E104CC
:10177000F10409F008F44CC060E472E48FE090E0FA
:10178000A50194010E94791069017A01E1E0CE1A65
:10179000D108E108F108F2E03F1220C02FEFC21695
:1017A000D104E104F10409F008F46AC160E970EDC4
:1017B00083E090E0A50194010E94791069017A010B
:1017C00081E0C81AD108E108F108EFEFCE16D10484
:1017D000E104F10409F0D0F583E067C0FFEFCF1614
:1017E000D104E104F104B1F0A8F068E478EE81E0FE
:1017F00090E0A50194010E94791069017A0181E0CD
:10180000C81AD108E108F108332009F4DFC02FC15C
:1018100081E001C082E03320A1F047C089819A8134
:10182000AB81BC812AE0B595A795979587952A95B8
:10183000D1F76C017D0121E0C21AD108E108F1085D
:1018400085E095B5987F892B85BD6FC068E478EEFB
:1018500081E090E0A50194010E94791069017A016C
:10186000F1E0CF1AD108E108F1082FEFC216D10438
:10187000E104F10409F008F4A7C064E274EF80E029
:1018800090E0A50194010E94791069017A01E1E0DC
:10189000CE1AD108E108F108FFEFCF16D104E10418
:1018A000F10411F008F0B4C085E09091B100987F88
:1018B000892B8093B10039C060E072E18AE790E043
:1018C000A50194010E94791069017A0181E0C81A8A
:1018D000D108E108F108C114D104E1E0EE06F104F9
:1018E00088F068E478EE81E090E0A50194010E9420
:1018F000791069017A01F1E0CF1AD108E108F10805
:1019000093E001C091E021E032120FC0809181008C
:10191000887F892B809381004114510461047104F4
:1019200049F42FEF3FEFA9012DC041145104610488
:10193000710471F0D801AA0FBB1FA30192010E948C
:10194000B61028EE33E040E050E00E94571003C08C
:101950002FEF3FEFA90181E03816A1F0E2E03E163B
:1019600019F131108FC0C7BC2093900330939103BD
:10197000409392035093930380916E008260809312
:101980006E0080C0D0928900C092880020938C03A2
:1019900030938D0340938E0350938F0380916F009B
:1019A000826080936F006EC0C092B3002093970353
:1019B000309398034093990350939A038091700059
:1019C0008260809370005EC084E06FCFFFEFCF161F
:1019D000D104E104F104D1F0C8F062E17AE780E0DB
:1019E00090E0A50194010E94791069017A0181E0DB
:1019F000C81AD108E108F108EFEFCE16D104E104CE
:101A0000F10411F008F00ACF84E01BCF83E019CF76
:101A100062E17AE780E090E0A50194010E947910EC
:101A200069017A0181E0C81AD108E108F108EFEFF5
:101A3000CE16D104E104F104C1F0B8F089819A8195
:101A4000AB81BC814AE0B595A795979587954A9556
:101A5000D1F76C017D0121E0C21AD108E108F1083B
:101A6000332009F4EDCE87E020CF86E0D4CEFFEF1F
:101A7000CF16D104E104F10409F050F684E0CBCE96
:101A800082E013CF0F900F900F900F90DF91CF91C6
:101A90001F910F91FF90EF90DF90CF90BF90AF908C
:101AA0009F908F907F906F905F904F903F900895A0
:101AB0004F925F926F927F92EF92FF920F931F93DC
:101AC000CF93DF93CDB7DEB7A1970FB6F894DEBF03
:101AD0000FBECDBF7C01FA01CB0119A2223008F460
:101AE0002AE08E010F5D1F4F422E512C612C712C6C
:101AF000BF01A30192010E945710F901CA010150D0
:101B000011096A3014F4605D01C0695CD8016C93FE
:101B1000232B242B252B61F7B801C7010E94DF0876
:101B2000A1960FB6F894DEBF0FBECDBFDF91CF9167
:101B30001F910F91FF90EF907F906F905F904F906B
:101B40000895DC01ED91FC910190F081E02D099464
:101B50000C94DF081F920F920FB60F9211242F934F
:101B60003F934F935F936F937F938F939F93AF9325
:101B7000BF93EF93FF9384EA93E00E948907FF915C
:101B8000EF91BF91AF919F918F917F916F915F91F5
:101B90004F913F912F910F900FBE0F901F9018956E
:101BA0001F920F920FB60F9211242F938F939F9332
:101BB000EF93FF93E091B403F091B5038081E0913E
:101BC000BA03F091BB0382FD12C090818091BD03E6
:101BD0008F5F8F732091BE03821751F0E091BD0398
:101BE000F0E0EC55FC4F958F8093BD0301C08081E0
:101BF000FF91EF919F918F912F910F900FBE0F90BA
:101C00001F901895FF920F931F93CF93DF93DC01E2
:101C100014962D913C911597232B09F49FC0EC014C
:101C20008A899B89009791F588899989892B09F080
:101C30004FC060E0CD010E94C00360E0CE010E9471
:101C4000FD03EC81FD818E81E80FF11DF180009193
:101C50006B0310916C030115110569F0D801ED912A
:101C6000FC910480F581E02D6F2DC8010995F801E4
:101C700002811381F0CF8E818F5F8E83CE01DF9141
:101C8000CF911F910F91FF900C94350118161906F2
:101C900014F01FEF01C011E0EE850E2E000CFF0BBB
:101CA000E256FE4F6081CE010E94C0038E85885FA0
:101CB000810F877887FF03C08150886F8F5F8E8781
:101CC0008A899B89811B910917FD93959B8B8A8B30
:101CD00088899989009701F114F41FEF01C011E080
:101CE000EF850E2E000CFF0BE256FE4F6081CE01F9
:101CF0000E94FD038F85885F810F877887FF03C06F
:101D00008150886F8F5F8F8788899989811B91099E
:101D100017FD9395998B888B8F81882329F0198AD9
:101D2000188A1B8A1A8A1AC0EC85FD8520853185A0
:101D3000032E000C440B550B60E472E48FE090E03E
:101D40000E9479102230310548F0220F331F220FF4
:101D5000331F25503109C9010197F1F7DF91CF9168
:101D60001F910F91FF90089508970C94020EE4EADA
:101D7000F3E01382128288EE93E0A0E0B0E0848367
:101D80009583A683B78382EB91E09183808385EC72
:101D900090E09587848784EC90E09787868780EC35
:101DA00090E0918B808B81EC90E0938B828B82EC26
:101DB00090E0958B848B86EC90E0978B868B118ED0
:101DC000128E138E148EE1E4F4E01382128282EC00
:101DD00091E09183808315821482E2E7F3E08AE543
:101DE00090E0938382831582148216821782138671
:101DF00012868AE592E09183808386E692E091875D
:101E0000808785E992E095878487118A108A138AF2
:101E1000128A16861786EBE7F4E013821282148288
:101E200015821682178210861186128613861486F2
:101E3000158616861786108A118A128A138A148AC2
:101E4000158A168A178A108E118E128E138E148E92
:101E5000158E168E178E8CE392E09183808387E82F
:101E600092E091A380A3EDE4F4E013821282148245
:101E700015821682178210861186128613861486A2
:101E8000158616861786108A118A128A138A148A72
:101E9000158A168A178A108E118E128E138E148E42
:101EA000158E168E178E80E192E09183808381E8F3
:101EB00092E091A380A315A6EDE6F3E013821282CF
:101EC00086EF91E0918380838AE08483E7E4F4E005
:101ED000138212828CED91E0918380838CE792E0F3
:101EE0009583848310926C0310926B031092060307
:101EF0000895789484B5826084BD84B5816084BD82
:101F000085B5826085BD85B5816085BD80916E0097
:101F1000816080936E0010928100809181008260C8
:101F20008093810080918100816080938100809105
:101F300080008160809380008091B10084608093F4
:101F4000B1008091B00081608093B00080917A00F0
:101F5000846080937A0080917A00826080937A0016
:101F600080917A00816080937A0080917A00806805
:101F700080937A001092C100E0917203F091730394
:101F80000190F081E02D82E793E00995E0917B04D8
:101F9000F0917C040688F789E02D8BE794E00995A1
:101FA0008DE494E00E94170861E0809171030E9423
:101FB000A9096DE673E08BE693E00E94AA0724E688
:101FC00030E040E050E06BE572E1809171030E94E7
:101FD000F00AE0914B04F0914C0461E080810E9492
:101FE000A909E0914B04F0914C0461E081810E94C9
:101FF000A909E0914B04F0914C0461E082810E94B8
:10200000A909E0914B04F0914C0461E083810E94A6
:10201000A909E0914B04F0914C0461E084810E9495
:10202000A90967E474E08BE693E00E94AA0761E4E3
:1020300074E08BE693E00E94AA070E9483086B017C
:102040007C01C0916B03D0916C03209769F0E8810B
:10205000F9810190F081E02DB701A601CE0109952B
:102060000A80DB81C02DF1CF8091760390917703B8
:10207000892B31F46AE070E080E090E00E94E5098D
:102080000E94B600DACFAA1BBB1B51E107C0AA1FF2
:10209000BB1FA617B70710F0A61BB70B881F991F09
:1020A0005A95A9F780959095BC01CD010895A1E2BC
:1020B0001A2EAA1BBB1BFD010DC0AA1FBB1FEE1FC2
:1020C000FF1FA217B307E407F50720F0A21BB30B0D
:1020D000E40BF50B661F771F881F991F1A9469F789
:1020E00060957095809590959B01AC01BD01CF01E5
:1020F0000895052E97FB1EF400940E94901057FD42
:1021000007D00E94571007FC03D04EF40C94901097
:1021100050954095309521953F4F4F4F5F4F089513
:1021200090958095709561957F4F8F4F9F4F089543
:102130000E94A010332312F48A1B9B0B0C94B11045
:10214000A29FB001B39FC001A39F700D811D1124F8
:10215000911DB29F700D811D1124911D08950E9443
:10216000A010B7FF0895821B930B08950E94A01042
:10217000A59F900DB49F900DA49F800D911D1124DB
:102180000895EE0FFF1F0590F491E02D099481E072
:1021900090E0F8940C94FD10FC018191861721F0D9
:1021A0008823D9F7992708953197CF010895FC0125
:1021B00088279927E89421912032E9F3293010F0FB
:1021C0002E30C8F32B3241F02D3239F4689404C01C
:1021D0000E94F510820F911D219120532A30C0F3E7
:1021E0001EF4909581959F4F08957AE0979F902DCA
:0E21F000879F802D910D11240895F894FFCF44
:1021FE00FFB801D201EE010B022A024B026E0293CE
:10220E0002BA02E40210033F037003A403DB0316B9
:10221E000454049604DC0426057405C7051F067DC8
:10222E0006E0064807B7072D08A9082D09B9094D7C
:10223E000AE90A8F0B3F0CFA0CC00D910E6F0F5A64
:10224E001052115A1272139A14D3151F177F18F4C5
:10225E0019801B221DDE1EB420A522B524E42634CF
:10226E0029A72B3F2EFF30E9330037453ABC3D6896
:10227E00414B456A49C84D68524E577F5CFF61011C
:10228E000402020403004D0A5211C00DA9080103F5
:10229E000206040C08090102030472036B0300001A
:1022AE000000F408A808AA0088009C003B09000062
:1022BE00000045034F034E034D034C031B054A0319
:1022CE003E034403F204E2040000000045038703CA
:1022DE007A034D034C034B034A039D039A03970362
:1022EE00940300000000450355044E034D034C03B8
:1022FE004B034A03490348035704460300000000FA
:10230E00F7024F034E034D034C034B034A0349039D
:10231E004803470346031708210734061D06ED063A
:10232E00C30667064B06830600000000F7024F0344
:10233E004E034D034C034B034A0349034803470323
:10234E0046030308EA0100000000BC071B01070159
:10235E00020EF8FF0000B40E4F034E034D034C0364
:10236E004B034A0349034803470346030E11100F5C
:10237E000DA40380250000150100025C030103ABD0
:10238E00022A0300000908070605040302E803CA2F
:10239E000600043A643D31362C6F3D362C623D38D2
:1023AE0030303A662C34702C662C34702C662C34FB
:1023BE00702C662C34702C632C34702C632C34707F
:1023CE002C632C34702C632C006E6573776772004F
:1023DE004E4553574752005052473A0052455345C7
:1023EE005400454E440041424F5254454420002F64
:0623FE0000474F20000023
:00000001FF
