:100000000C94EB000C9413010C9413010C94130149
:100010000C9413010C9413010C9413010C94130110
:100020000C9413010C9413010C94E60A0C94580BD5
:100030000C9413010C9413010C9413010C941301F0
:100040000C9413010C9413010C9413010C941301E0
:100050000C9413010C9413010C9413010C94A50F30
:100060000C9413010C9490130C946A130C941301C8
:100070000C9413010C9413010C9413010C941301B0
:100080000C94EF0F0C9413010C9413010C941301B6
:100090000C9413010C9413010C9413010C94130190
:1000A0000C9413010C9413010C941301F70EFA0E27
:1000B000E90EED0EF10E1B0F1B0F1B0FFE0E020FB4
:1000C000060F0C0F100F1B0F160F0706050401007B
:1000D000080A0B0C0D09080B0002020201000904BA
:1000E00000000102020000052400100105240101A6
:1000F00001042402060524060001070581031000FF
:100100004009040100020A00000007050202400045
:10011000000705830240000004030904417264756E
:10012000696E6F204C4C430041726475696E6F209C
:100130004D6963726F00120100020000004041230C
:10014000370000010102030112010002EF02014029
:1001500041233700000101020301030000000024D5
:100160000027002A002D0030000000000025002894
:10017000002B002E003100040404040403040502D3
:100180000202020403020202020606060606060432
:1001900004020202040404080201104080401020FE
:1001A000408040800802040180402010020110803D
:1001B00010204040200000000200090F000003044E
:1001C00001000C0000000000000000000000000022
:1001D00000000000B81411241FBECFEFDAE0DEBF2C
:1001E000CDBF13E0A0E0B1E0E4E3FFE202C0059080
:1001F0000D92A032B107D9F725E0A0E2B3E001C02B
:100200001D92A332B207E1F710E0CBEED0E004C0BC
:100210002197FE010E941217CA3ED107C9F70E941A
:1002200084150C9498170C940000FC01918D228D7C
:10023000892F90E0805C9F4F821B91098F739927D3
:10024000089580E090E0892B29F00E941E0E811114
:100250000C94000008951F93CF93DF93162FFC0199
:10026000C081D181209761F0E881F9810488F58906
:10027000E02D612FCE0109950A80DB81C02DF2CFE0
:10028000DF91CF911F9108951F93CF93DF93162F86
:10029000FC01C081D181209761F0E881F981028859
:1002A000F389E02D612FCE0109950A80DB81C02DF5
:1002B000F2CFDF91CF911F910895CF93DF93FC018F
:1002C000C081D181209759F0E881F9810484F585B6
:1002D000E02DCE0109950A80DB81C02DF3CFDF919F
:1002E000CF910895CF92DF92EF92FF920F931F93D9
:1002F000CF93DF931F92CDB7DEB76C01DC0115966B
:100300002C9115971296ED91FC9113971496FC90F1
:1003100090912F04809130042223D1F0E080092FA6
:10032000182F0115110571F0D801ED91FC9106848B
:10033000F785E02D4E2D6F2DC8010995F80102813A
:100340001381EFCFD60113961C921E9212976DC0A7
:100350002081F21215C0F60113821282092F182F84
:100360000115110509F461C0D801ED91FC910284D9
:10037000F385E02DC8010995F80102811381F0CFC2
:10038000EF0DF11D2181092F182F0115110579F0AD
:10039000D801ED91FC910280F381E02D622FC8011C
:1003A00029830995F801028113812981EECF22303A
:1003B000B9F050F42130C9F5D601ED91FC910480DB
:1003C000F581E02D61E026C02330E9F0243069F5A5
:1003D000D6011A96ED91FC911B97848595850AC0EC
:1003E000D6011A96ED91FC911B9784859585919580
:1003F000819591091F969C938E931E9751969C937D
:100400008E93509712C0D601ED91FC910480F58136
:10041000E02D6FEFC6010F90DF91CF911F910F91EB
:10042000FF90EF90DF90CF9009940F90DF91CF91E4
:100430001F910F91FF90EF90DF90CF900895FC01F6
:10044000A285B3851A964D915C911B976403900128
:10045000659F300D11243787268731952195310905
:10046000318B208B0895CF93DF93EC01EA85FB85D8
:100470002485358577FD03C0319521953109032EFB
:10048000000C440B550BDB010E9423172AE530E0DA
:1004900040E050E00E94D1163F872E87398B288B91
:1004A000DF91CF9108958F929F92AF92BF92EF927A
:1004B000FF920F931F93CF93DC019096ED91FC91E7
:1004C0009197E081E23108F0E251F0E0E653FF4F0E
:1004D000E49180917B00E3FB222720F930E095E056
:1004E000220F331F9A95E1F78F7D282B20937B00F5
:1004F000E770E064E0937C0080917A0080648093F0
:100500007A0080917A0086FDFCCF2091780080915E
:10051000790030E0382B2F3D63E0360724F0A90145
:100520004E5D534004C04EED53E0421B530B90967A
:10053000ED91FC91919782819381B901681B790BB0
:10054000CB0177FF03C09195819591098417950799
:100550001CF4AC01C1E001C0C0E084819581B90107
:10056000681B790BCB0177FF03C0919581959109A9
:100570008417950714F4AC01C2E086819781B90114
:10058000681B790BCB0177FF03C091958195910989
:100590008417950714F4AC01C3E080859185B901F7
:1005A000681B790BCB0177FF03C091958195910969
:1005B0008417950714F4AC01C4E082859385B901D2
:1005C000681B790BCB0177FF03C091958195910949
:1005D0008417950714F4AC01C5E084859585281B24
:1005E000390B37FF03C031952195310924173507A1
:1005F0000CF4C6E092966C919297C61709F469C004
:100600008D01662391F18FEF860F7D0174E0879F46
:10061000E00CF11C1124D70114968D909D90AD90A3
:10062000BC90179781149104A104B104F1F0F80172
:10063000848D958DA68DB78D88199909AA09BB0956
:100640008F319105A105B10580F0883E9340A10549
:10065000B10520F48FE294E00E944401D701149682
:100660001D921D921D921C921797C11103C0F80193
:10067000C2A32FC08FEF8C0F9801F4E08F9F200D45
:10068000311D1124F90184819581A681B781892BBF
:100690008A2B8B2B61F7F801848D958DA68DB78DF4
:1006A000F90184839583A683B783E0902F04F090AB
:1006B0003004E114F104D9F2D701ED91FC910088E6
:1006C000F189E02D6C2FC7010995F701E280F380D5
:1006D000F0CFCF911F910F91FF90EF90BF90AF900F
:1006E0009F908F900895EF92FF921F93CF93DF9387
:1006F000EC01CB01BA0128EE33E040E050E00E946B
:10070000D1162C8F3D8F4E8F5F8F7E0111E0F70148
:1007100044815581668177814115510561057105D7
:10072000B9F08C8D9D8DAE8DBF8D841B950BA60B66
:10073000B70B893E9340A105B10550F0612F8FE2C0
:1007400094E00E942B01F701148215821682178211
:10075000F4E0EF0EF11C1F5F1730C9F6E881F98154
:10076000008CF18DE02DCE01DF91CF911F91FF9094
:10077000EF9009941092CA038FE294E00C945D010B
:100780000895089508950895089508950895089581
:100790000895089508950895FC01962F642F9330CD
:1007A000A9F028F4913041F0923059F00895943036
:1007B00091F09530A9F008950480F581E02D8081B5
:1007C00013C00480F581E02D81810EC00480F58185
:1007D000E02D828109C00480F581E02D838104C071
:1007E0000480F581E02D84810C94CC0E615064303E
:1007F00030F4E62FF0E0E555FE4F608101C060E087
:1008000040E00C94CC036150643030F4E62FF0E00B
:10081000E555FE4F608101C060E041E00C94CC03DF
:1008200040E00C94CC0340E00C94CC0341E00C94E9
:10083000CC03CF93DF93EC01EC81FD8160E08081FC
:100840000E94CC0EEC81FD8160E081810E94CC0E83
:10085000EC81FD8160E082810E94CC0EEC81FD8103
:1008600060E083810E94CC0EEC81FD8160E0848198
:10087000DF91CF910C94CC0E0F931F93CF93DF9306
:100880008C01C62F6170DC011A96ED91FC911B97CB
:1008900080810E94CC0ED0E0BE0175956795617095
:1008A000D8011A96ED91FC911B9781810E94CC0E84
:1008B000BE0175956795759567956170D8011A9613
:1008C000ED91FC911B9782810E94CC0E23E0D5957F
:1008D000C7952A95E1F76C2F6170D8011A96ED91B2
:1008E000FC911B978381DF91CF911F910F910C9405
:1008F000CC0E0F931F93CF93DF938C01C62F6170A3
:10090000DC011A96ED91FC911B9784810E94CC0E1C
:10091000D0E0BE01759567956170D8011A96ED918A
:10092000FC911B9785810E94CC0EBE017595679541
:10093000759567956170D8011A96ED91FC911B979A
:1009400086810E94CC0E23E0D595C7952A95E1F7C4
:100950006C2F6170D8011A96ED91FC911B978781DD
:10096000DF91CF911F910F910C94CC0E2FEF260F9A
:10097000243068F4E62FF0E0EE0FFF1FE756FE4F3D
:100980006081718124E630E040E050E006C024E65A
:1009900030E040E050E06BE572E1FC0184810C94B2
:1009A00054100C94B6040C94B604FF920F931F934A
:1009B000CF93DF931F92CDB7DEB78091CA03882310
:1009C00049F0898341E050E060E070E0CE0101969B
:1009D0000E94801764EF71E080E090E00E946B0F4E
:1009E000F090CA03FF2041F11092910410929204FA
:1009F0008AEC93E09093900480938F0400912F04ED
:100A0000109130040115110569F0D801ED91FC91A8
:100A10000084F185E02D6F2DC8010995F801028150
:100A20001381F0CFE0918D04F0918E040680F78160
:100A3000E02D8DE894E009950F90DF91CF911F9103
:100A40000F91FF9008951F93CF93DF93E091CA0316
:100A5000E436D8F4162F81E08E0F8093CA03F0E0BD
:100A6000E653FC4F6183C0912F04D091300420974E
:100A700089F0E881F9810680F781E02D612FCE01B0
:100A800009950A80DB81C02DF2CFDF91CF911F91B4
:100A90000C94D504DF91CF911F91089520918F047C
:100AA00030919004232B21F081E0809392040895EB
:100AB000633019F465E00C942305089520918F04A8
:100AC00030919004232B21F081E0809392040895CB
:100AD000633089F028F4613049F0623049F00895BC
:100AE000653069F050F0663081F0089561E001C032
:100AF00062E00C94230563E0FCCF64E0FACF8091C0
:100B0000CA03882341F00C94D5041092CA038FE2E3
:100B100094E00C945D0108952F923F924F925F9262
:100B20006F927F928F929F92AF92BF92CF92DF92FD
:100B3000EF92FF920F931F93CF93DF9300D01F92FA
:100B4000CDB7DEB71092CA038FE294E00E945D0138
:100B500060E4E62EFF24F39475E0772E00E1EEEBDF
:100B6000F2E0808181111AC0AF014F5F5F4F5B835C
:100B70004A8310E0272C602E512E2FEF9AE0492E49
:100B800033243A9438EEC32E33E0D32E4AE5A42E14
:100B900041E0B42E5CE3852E912C61C08A3321F3B1
:100BA000843671F08F36E9F08236A1F56F0182E06C
:100BB000C80ED11CC6010E944A177C01960122C0B2
:100BC0006F0142E0C40ED11CC6010E944A17082FD3
:100BD0009601F9012F5F3F4F808180538A30C8F31F
:100BE000C0CF6F0152E0C50ED11CC6010E944A174A
:100BF000782E9601F9012F5F3F4F808180538A3014
:100C0000C8F3AFCFF9012F5F3F4F808180538A3007
:100C1000C8F3A7CF3196A5CF9A3058F58A819B812A
:100C2000298327FF22C00E944A17FC01EE9DC001C4
:100C3000EF9D900DFE9D900D1124B4010E94BD16F4
:100C4000662E572E29814A815B815B834A834F5FE1
:100C50005F4FEA81FB81808180538A30B0F3EA8163
:100C6000FB8190819111D8CF95C00E944A17282E00
:100C7000E9CF933619F17CF49C3241F12CF4933294
:100C800009F081C02F5F7FC09136B1F0923609F034
:100C90007AC023E078C09636A9F03CF4943681F00F
:100CA000953609F070C028E06EC0973669F090372D
:100CB00009F069C020E067C021E065C024E063C09E
:100CC00026E061C029E05FC02AE05DC02F3F09F443
:100CD00052C08CEF820D853008F051C01216CCF452
:100CE000822D90E00497489EF001499EF00D11245A
:100CF000E20FF11D27FDFA95EE0FFF1FE55FFE4F96
:100D00006081718120E030E0A90180913B040E9464
:100D10005410C601662D752D0E94BD1680E090E02E
:100D20000E946B0F80913B0490910C0198131FC09F
:100D3000F501949130920C01913071F050F09330A4
:100D400089F09430A1F4909172009F7B909372008F
:100D50000EC010926E000BC090916F009D7F90931B
:100D60006F0005C0909171009D7F9093710060E0CD
:100D70000E94CC0E04C0272C602E512E04C0272CBC
:100D8000602E512E2FEF4A815B814F5F5F4F5B8357
:100D90004A8365CF0F900F900F90DF91CF911F91F5
:100DA0000F91FF90EF90DF90CF90BF90AF909F900A
:100DB0008F907F906F905F904F903F902F9008950D
:100DC000CF93DF93EC01E62FF0E0EE50FD4FA8A1AA
:100DD000B9A160818D919C910E946113E8A1F9A154
:100DE0006AE080819181DF91CF910C946113CF9360
:100DF000DF93EC01E62FF0E0E750FD4FA8A1B9A189
:100E000060818D919C910E946113E8A1F9A16AE033
:100E100080819181DF91CF910C946113CF93DF9307
:100E2000EC01E8A1F9A161E073E0808191810E9469
:100E30006813E8A1F9A166E073E0808191810E94C6
:100E40006813E8A1F9A16AE080819181DF91CF91D7
:100E50000C946113CF93DF93EC01E8A1F9A161E059
:100E600073E0808191810E946813E8A1F9A16CE090
:100E700073E0808191810E946813E8A1F9A16AE082
:100E800080819181DF91CF910C9461130F931F9317
:100E9000CF93DF93EC01062F142FE8A1F9A161E0B5
:100EA00073E0808191810E946813E8A1F9A160E15B
:100EB00073E0808191810E946813402F50E060E0D0
:100EC00070E0E8A1F9A12AE0808191810E941813C5
:100ED000E8A1F9A169E173E0808191810E94681322
:100EE000412F50E060E070E0E8A1F9A12AE08081A4
:100EF00091810E941813E8A1F9A16AE08081918193
:100F0000DF91CF911F910F910C9461131F93CF9399
:100F1000DF93EC01162FE8A1F9A161E073E0808175
:100F200091810E946813E8A1F9A16BE173E08081CF
:100F300091810E946813412F50E060E070E0E8A1C9
:100F4000F9A12AE0808191810E941813E8A1F9A1FA
:100F50006AE080819181DF91CF911F910C946113A0
:100F60001F93CF93DF93EC01162FE8A1F9A161E065
:100F700073E0808191810E946813412F50E060E00E
:100F800070E0E8A1F9A12AE0808191810E94181304
:100F9000E8A1F9A160E2808191810E946113E12FB3
:100FA000F0E0EE50FD4FA8A1B9A160818D919C9118
:100FB0000E946113E8A1F9A16AE080819181DF912B
:100FC000CF911F910C9461130F931F93CF93DF93D5
:100FD000EC018C010E5D1F4FE8A1F9A18081918188
:100FE000DC01ED91FC910480F581E02D0995892BC0
:100FF00009F44DC0E8A1F9A180819181DC01ED9156
:10100000FC910680F781E02D09959DA58A30A1F518
:10101000FE01E90FF11D12A21DA6F80101900020AA
:10102000E9F7CF01029780179107B1F66AA1062E62
:10103000000C770B8AEF92E00E943F17009741F077
:101040008A5F924061E0680F8FE294E00E942B017A
:101050006AA1062E000C770B83EF92E00E943F17E7
:10106000009709F4B9CF835F924061E0680F8FE287
:1010700094E00E944401B0CF9A3008F0ADCF21E057
:10108000290F2DA7FE01E90FF11D82A3A5CFDF9146
:10109000CF911F910F910895FC01848DDF01A80F5E
:1010A000B11DA35ABF4F2C91848D90E001968F7390
:1010B0009927848FA689B7892C93A089B1898C91AF
:1010C00080648C93938D848D981306C00288F38975
:1010D000E02D80818F7D80830895DC01ED91FC916E
:1010E0001197309719F46D937C93089582819381C1
:1010F000009711F0FC01FACF738362830895CF93B8
:10110000DF93EC01EA85FB8561E080810E942F0F6F
:10111000EA85FB8561E081810E942F0FEA85FB85CE
:1011200061E082810E942F0FEA85FB8561E0838167
:101130000E942F0FEA85FB8561E084810E942F0FBA
:10114000EA85FB8561E085810E942F0FEA85FB859A
:1011500061E086810E942F0FEA85FB8561E087812F
:101160000E942F0F88E090E09F878E87998B888B55
:10117000BE016A5F7F4F8FE294E0DF91CF910C94C4
:101180006D08BC018FE294E00C946D08CF93DF935F
:10119000EC010E94C108E8A1F9A18181811102C07E
:1011A00060E001C062E080810E942F0F1AA2DF91EF
:1011B000CF910895CF92DF92EF92FF92CF93DF937A
:1011C000EC010E94C108E8A1F9A1C280D380E480AB
:1011D000F580C081D181E889F98982E08083C114DA
:1011E00081EED806E104F104B1F060E079E08DE32E
:1011F00090E0A70196010E94D116DA01C90101977A
:10120000A109B109B695A795979587959C012115D8
:1012100080E13807A8F0E889F989108260E874E86D
:101220008EE190E0A70196010E94D116DA01C90172
:101230000197A109B109B695A795979587959C0146
:10124000EC85FD853083EE85FF852083188EEC8943
:10125000FD8986E08083EA89FB89808180618083C3
:10126000EA89FB89808188608083EA89FB898081A3
:1012700080688083EA89FB8980818F7D8083DF910C
:10128000CF91FF90EF90DF90CF900895FC01809177
:101290002803811103C08FEF9FEF08959FB7F89443
:1012A00082E08093E9002091F20030E012161306EC
:1012B00014F421E030E02115310559F0289A84E634
:1012C000809327038091F10080838091F20088232E
:1012D00019F09FBFC90108958BE68093E800F9CF0C
:1012E0008091A50481110DC082E08093A10484E067
:1012F0008093A2041092A4041092A30481E080932E
:10130000A50481EA94E00895CF93DF931F92CDB7AF
:10131000DEB76983DC01ED91FC910280F381E02D61
:1013200041E050E0BE016F5F7F4F09950F90DF9164
:10133000CF91089583E08093E9008091F2008823A3
:1013400019F08AE38093E8000895CF93DF931F920A
:10135000CDB7DEB7FC018485958597FD05C02FEFDD
:101360003FEF358724870BC0CE0101960E944609C6
:10137000019719F4898190E002C08FEF9FEF0F90E1
:10138000DF91CF9108950F931F93CF93DF931F9217
:10139000CDB7DEB78C01FC018485958597FF0EC023
:1013A000CE0101960E944609019719F4298130E087
:1013B00002C02FEF3FEFF80135872487F8018485BD
:1013C00095850F90DF91CF911F910F910895FC01AA
:1013D0008485958597FD0BC09FB7F89482E0809334
:1013E000E9008091F2009FBF90E0019608959FB7B9
:1013F000F89482E08093E9008091F2009FBF90E032
:1014000008958F929F92AF92BF92CF92DF92EF9208
:10141000FF920F931F93CF93DF935C016B018A01BF
:1014200080910B01882309F45EC0809128038823F2
:1014300009F459C08091260380FF05C08091E00027
:1014400082608093E000E8018AEFF82E93E0E92EB5
:101450002FE3822E3AE3932E209709F43DC08FB7F5
:10146000F894E092E9009091E80095FF06C0909111
:10147000F200282D291B922F01C090E08FBF9111FF
:101480000AC0FA94FF2079F161E070E080E090E01A
:101490000E946B0FE1CF292F30E0C217D3070CF465
:1014A0009C2F8FB7F894E092E9002091E80025FF87
:1014B00011C0292F30E0C21BD30BF601915020F050
:1014C00041914093F100FACFC20ED31E9091E800F3
:1014D00095FF13C08FBFC0CF5D9A84E68093A004B0
:1014E0001016110644F081E090E0F50193838283A9
:1014F00080E090E005C0C80103C09092E800EACF08
:10150000DF91CF911F910F91FF90EF90DF90CF90DF
:10151000BF90AF909F908F900895DF92EF92FF92CF
:101520000F931F93CF93DF93D82E8A017B01E40E94
:10153000F51EEB01CE15DF0571F0D7FE03C0FE01ED
:10154000849101C088810E94910E21968111F2CF71
:101550008FEF9FEF01C0C801DF91CF911F910F91D5
:10156000FF90EF90DF9008950F931F93CF93DF9339
:101570001F92CDB7DEB782E0898342E450E066ED8A
:1015800070E080E80E948D0A0E947009DC011296CA
:101590000D911C9113970115110569F0D801ED917A
:1015A000FC910280F381E02DBE016F5F7F4FC80187
:1015B000099597FF07C089810F90DF91CF911F9107
:1015C0000F910895F80100851185E5CF1F920F92C4
:1015D0000FB60F9211248F939F938091E100909109
:1015E000E100937F9093E10083FF0FC01092E90028
:1015F00091E09093EB001092EC0092E39093ED0059
:101600001092280398E09093F00082FF20C093E0AE
:101610009093E9009091F200992319F09AE3909346
:10162000E8009091A004992339F09091A004915082
:101630009093A004992389F190912703992339F07D
:1016400090912703915090932703992341F184FFB0
:1016500010C08091E2008E7E81608093E2008091D4
:10166000E1008F7E8093E100809126038E7E806171
:1016700011C080FF16C08091E2008E7E8061809351
:10168000E2008091E1008E7E8093E100809126034C
:101690008E7E81608093260304C05D98CDCF28980C
:1016A000D6CF9F918F910F900FBE0F901F901895DE
:1016B0001F920F920FB60F921124CF92DF92EF92EA
:1016C000FF920F931F932F933F934F935F936F93CB
:1016D0007F938F939F93AF93BF93EF93FF93CF939A
:1016E000DF93CDB7DEB76C97DEBFCDBF1092E900B8
:1016F0008091E80083FFFAC168E0CE0145960E9420
:10170000BF0E82EF8093E8008D8987FF05C090911E
:10171000E80090FFFCCF03C09EEF9093E800982F65
:10172000907609F0C6C09E892F89188D91110CC042
:10173000803829F4809125038093F10002C0109233
:10174000F1001092F10047C1422F50E0512B91302F
:1017500051F4811140C14130510509F03CC18091E3
:1017600025038D7F0BC0933061F4811134C141306A
:10177000510509F030C180912503826080932503D3
:101780002AC1953041F48091E80080FFFCCF2068A9
:101790002093E30020C1963009F05FC0EB8CFC8CF5
:1017A0001092E9001092230310922203123091F557
:1017B00010922103109220030E94B40A99E0BE0106
:1017C0006F5F7F4FDB01E92F1D92EA95E9F799835F
:1017D0001A8391E09E8390EA98879AEF99872091E7
:1017E000220330912303275F3F4F3C832B838D835C
:1017F0001092E9001092230310922203F092210329
:10180000E092200349E050E080E00E948D0A0E94AF
:10181000B40AE1C0F0922103E09220030E94700913
:10182000DC011296ED90FC901397E114F10409F499
:10183000C0C0D701ED91FC910480F581E02DBE017F
:101840006B5E7F4FC7010995009719F00CF0C3C07C
:10185000C6C0F701E084F184E8CF973009F4BFC037
:10186000983021F481E08093F100B5C0993009F0FF
:10187000B2C0837009F0B3C0E0EBF1E081E021E099
:1018800036E39081992361F08093E9002093EB0087
:1018900091919093EC003093ED008F5F873089F742
:1018A0008EE78093EA001092EA008F8980932803E4
:1018B00092C08B8D9C8D1092E900109223031092A0
:1018C00022039093210380932003898D811156C0B8
:1018D0008E899D89913A59F4813209F080C047E0A0
:1018E00050E064E071E080E00E948D0A74C09132A3
:1018F00009F075C0833289F4888D90E0982F88278D
:101900002F89822BA0E0B0E0809300019093010129
:10191000A0930201B09303015EC0803269F480910C
:10192000E80082FFFCCF67E084E091E00E94BF0EF8
:101930008BEF8093E80006C0823209F04CC08F899B
:1019400080930B0180912403882319F0EEEFFAE0D5
:1019500002C0E0E0F8E08091040190910501A091BF
:101960000601B0910701803B9440A105B10509F043
:1019700088C080910B0180FFA0C083C00E947009C5
:10198000DC0112960D911C9113970115110539F187
:10199000D801ED91FC910190F081E02DBE016B5ECC
:1019A0007F4FC8010995811116C0F8010085118586
:1019B000ECCF1130C1F0133091F48F89882309F4F2
:1019C00055C08230E9F440E86DE088E291E00E9481
:1019D0007B14882321F08EEF8093E80087C081E29A
:1019E0008093EB0083C08B8D9C8D089711F410932E
:1019F0009F0480919F04811136C066E371E038C076
:101A0000813029F440E86BE08CE191E0E0CF833055
:101A100031F70E947009DC011296ED90FC9013974B
:101A20008E010F5F1F4F6801E114F10479F0D701B7
:101A3000ED91FC910680F781E02DB801C701099571
:101A4000080F111DF701E084F184EECFD8011C923C
:101A5000F60101900020E9F73197BF016C197D096B
:101A600040E0C601B4CF68E471E002C068E171E013
:101A70006115710509F4B3CFFB01449150E080E892
:101A800033CF0FB6F894A895809160008861809359
:101A90006000109260000FBEA895EE3F2AE0F207AA
:101AA00039F08091FE0A9091FF0A9183808393CF51
:101AB0001092FF0A1092FE0A8ECFEE3F8AE0F807DE
:101AC00031F0808191819093FF0A8093FE0A87E72D
:101AD00097E7918380839BE088E10FB6F894A895FF
:101AE000809360000FBE9093600075CF6C960FB628
:101AF000F894DEBF0FBECDBFDF91CF91FF91EF9184
:101B0000BF91AF919F918F917F916F915F914F9115
:101B10003F912F911F910F91FF90EF90DF90CF9009
:101B20000F900FBE0F901F9018953FB7F8948091BB
:101B30001F0590912005A0912105B091220526B5A1
:101B4000A89B05C02F3F19F00196A11DB11D3FBFF5
:101B5000BA2FA92F982F8827820F911DA11DB11D83
:101B6000BC01CD0142E0660F771F881F991F4A957F
:101B7000D1F70895CF92DF92EF92FF920F931F93C8
:101B8000CF93DF936C017A018B01C0E0D0E0CE15DA
:101B9000DF0589F0D8016D918D01D601ED91FC91A1
:101BA0000190F081E02DC6010995892B11F47E0189
:101BB00002C02196ECCFC701DF91CF911F910F9109
:101BC000FF90EF90DF90CF900895FC01918D828D72
:101BD000981761F0828DDF01A80FB11D5D968C9181
:101BE000928D9F5F9F73928F90E008958FEF9FEF8C
:101BF0000895FC01918D828D981731F0828DE80F48
:101C0000F11D858D90E008958FEF9FEF08950E945C
:101C10003A176115710579F0FB0101900020E9F791
:101C20003197AF01461B570BDC01ED91FC9102800F
:101C3000F381E02D099480E090E0089589E293E03B
:101C40000E94150121E0892B09F420E0822F0895DC
:101C5000EF92FF920F931F93CF93DF93EC0181E0FC
:101C6000888F9B8D8C8D981305C0E889F9898081B8
:101C700085FD24C0F62E0B8D10E00F5F1F4F0F73F4
:101C80001127E02E8C8DE8120CC00FB607FCFACF9E
:101C9000E889F989808185FFF5CFCE010E944C0843
:101CA000F1CF8B8DFE01E80FF11DE35AFF4FF0825B
:101CB0000B8FEA89FB898081806207C0EE89FF89EA
:101CC0006083E889F98980818064808381E090E085
:101CD000DF91CF911F910F91FF90EF900895CF93D7
:101CE000DF93EC01888D8823C9F0EA89FB89808124
:101CF00085FD05C0A889B9898C9186FD0FC00FB6F6
:101D000007FCF5CF808185FFF2CFA889B9898C9136
:101D100085FFEDCFCE010E944C08E7CFDF91CF9138
:101D20000895409122035091230320912003309184
:101D3000210342175307B4F49091E8009570E1F342
:101D40009091E80092FD19C08093F10080912203E8
:101D50009091230301968F739927892B19F48EEFA5
:101D60008093E80080912203909123030196909341
:101D700023038093220381E0089580E00895615059
:101D800030F02091F100FC0120830196F8CF289AD1
:101D900084E6809327030895362F90E0FC01EB54EE
:101DA000FE4F4491FC01EA56FE4F2491FC01E95894
:101DB000FE4F8491882309F451C04423E1F150E09F
:101DC000FA013197EF30F105B0F5EA5AFF4F0C9464
:101DD0001217909180009F7707C0909180009F7D9F
:101DE00003C090918000977F9093800024C094B5A9
:101DF0009F7702C094B59F7D94BD1DC090919000C7
:101E00009F7707C0909190009F7D03C090919000B4
:101E1000977F909390000FC09091C0009F7703C070
:101E20009091C0009F7D9093C00005C09091C2002A
:101E3000977F9093C200E82FF0E0EE0FFF1FE75965
:101E4000FE4FA591B4918FB7F894EC91311103C076
:101E500020952E2301C02E2B2C938FBF0895CF9356
:101E6000DF9390E0FC01EA56FE4F2491FC01E95813
:101E7000FE4F8491882361F190E0880F991FFC0147
:101E8000E55AFE4FC591D491FC01E759FE4FA5914B
:101E9000B491611109C09FB7F8948881209582237D
:101EA0008883EC912E230BC0623061F49FB7F894C5
:101EB0003881822F809583238883EC912E2B2C935D
:101EC0009FBF06C08FB7F894E8812E2B28838FBF61
:101ED000DF91CF9108958F929F92AF92BF92CF9250
:101EE000DF92EF92FF926B017C010E94950D4B01F6
:101EF0005C01C114D104E104F104F1F00E94950DDC
:101F0000DC01CB0188199909AA09BB09883E9340D5
:101F1000A105B10570F321E0C21AD108E108F1086A
:101F200088EE880E83E0981EA11CB11CC114D10458
:101F3000E104F10419F7DDCFFF90EF90DF90CF902F
:101F4000BF90AF909F908F9008951F920F920FB601
:101F50000F9211242F933F938F939F93AF93BF932F
:101F600080911B0590911C05A0911D05B0911E0547
:101F700030911A0523E0230F2D3720F40196A11D7F
:101F8000B11D05C026E8230F0296A11DB11D2093A7
:101F90001A0580931B0590931C05A0931D05B09313
:101FA0001E0580911F0590912005A0912105B091FB
:101FB00022050196A11DB11D80931F059093200558
:101FC000A0932105B0932205BF91AF919F918F916E
:101FD0003F912F910F900FBE0F901F9018951F9259
:101FE0000F920FB60F9211242F933F938F939F93CD
:101FF000AF93BF93EF93FF938091160590911705D0
:10200000A0911805B0911905892B8A2B8B2B51F1C2
:1020100080911505E0911305F091140590818927B1
:1020200080838091160590911705A0911805B091B5
:102030001905181619061A061B064CF58091160587
:1020400090911705A0911805B09119050197A10964
:10205000B1098093160590931705A0931805B093C6
:10206000190515C0809171008D7F8093710090914A
:102070001505E0911305F09114058081282F30E0BB
:10208000892F90E080959095822393238083FF9100
:10209000EF91BF91AF919F918F913F912F910F90B1
:1020A0000FBE0F901F9018953F924F925F926F92C4
:1020B0007F928F929F92AF92BF92CF92DF92EF92D8
:1020C000FF920F931F93CF93DF9300D000D0CDB733
:1020D000DEB729013A0190910C01981721F09F3F3A
:1020E00009F090C204C0EAE5F1E03490AEC08093FC
:1020F0000C01EAE5F1E0E491EF3F09F483C2E1303D
:1021000009F452C01CF5E1119FC014BC15BC94B574
:10211000926094BD95B5916095BD282F30E0F9018E
:10212000E958FE4FE491F0E0EE0FFF1FE759FE4F34
:10213000459154915093060540930505F901EA56DF
:10214000FE4FE491E0930405312C81C0E33009F4A3
:1021500053C0E43009F078C01092C0001092C10062
:102160009091C10098609093C1009091C1009160DE
:102170009093C100482F50E0FA01E958FE4FE491D6
:10218000F0E0EE0FFF1FE759FE4F25913491309399
:1021900000052093FF04FA01EA56FE4FE491E09314
:1021A000FE04B4E03B2E53C01092800010928100D8
:1021B000909181009860909381009091810091604E
:1021C00090938100282F30E0F901E958FE4FE49107
:1021D000F0E0EE0FFF1FE759FE4F459154915093E9
:1021E000030540930205F901EA56FE4FE491E0939E
:1021F0000105332433942BC010929000109291006B
:1022000090919100986090939100909191009160CD
:1022100090939100282F30E0F901E958FE4FE491A6
:10222000F0E0EE0FFF1FE759FE4F45915491509398
:10223000140540931305F901EA56FE4FE491E0932B
:10224000150503E0302E03C03E2E37FCDBC18B01A9
:1022500061E00E942F0F4801A12CB12C832D8D7FAE
:1022600009F0CCC060E072E18AE790E0A50194013A
:102270000E94F31629833A834B835C8369017A01B8
:1022800021E0C21AD108E108F1088FEFC816D10485
:10229000E104F10409F008F44BC060E472E48FE05B
:1022A00090E0A50194010E94F31669017A0191E082
:1022B000C91AD108E108F108E2E03E121FC0FFEFA1
:1022C000CF16D104E104F10409F008F4F4C060E988
:1022D00070ED83E090E0A50194010E94F31669017E
:1022E0007A0181E0C81AD108E108F1089FEFC91608
:1022F000D104E104F10409F010F5DDC0EFEFCE16D2
:10230000D104E104F104B1F0A8F068E478EE81E0D2
:1023100090E0A50194010E94F31669017A01F1E0B1
:10232000CF1AD108E108F108332009F437C12CC1D4
:1023300081E001C082E0332009F45BC0BCC068E4E6
:1023400078EE81E090E0A50194010E94F316690106
:102350007A01F1E0CF1AD108E108F1082FEFC21697
:10236000D104E104F10409F008F4A5C064E274EFBB
:1023700080E090E0A50194010E94F31669017A01C2
:1023800081E0C81AD108E108F1089FEFC916D1040D
:10239000E104F10409F008F48EC062E17AE780E01C
:1023A00090E0A50194010E94F31669017A0181E091
:1023B000C81AD108E108F1089FEFC916D104E10459
:1023C000F10409F008F4DEC089819A81AB81BC81F7
:1023D0004AE0B595A795979587954A95D1F76C01F1
:1023E0007D01E1E0CE1AD108E108F108311063C0A7
:1023F00085E095B5987F892B85BD5DC060E072E171
:102400008AE790E0A50194010E94F31669017A0120
:10241000F1E0CF1AD108E108F108C114D10421E09C
:10242000E206F10488F068E478EE81E090E0A5012E
:1024300094010E94F31669017A0181E0C81AD1085B
:10244000E108F10883E001C081E091E039120FC09A
:1024500090918100987F892B8093810041145104D1
:102460006104710469F52FEF3FEFA90157C0E3E064
:102470003E120FC090919100987F892B809391001C
:102480004114510461047104D9F42FEF3FEFA90105
:1024900057C0F4E03F120FC09091C100987F892B84
:1024A0008093C100411451046104710449F42FEF79
:1024B0003FEFA90157C0411451046104710471F048
:1024C000D801AA0FBB1FA30192010E94181728EE82
:1024D00033E040E050E00E94D11603C02FEF3FEF01
:1024E000A90181E03816D1F083158CF031108AC033
:1024F000C7BC20930F0530931005409311055093EE
:10250000120580916E00826080936E007BC093E024
:102510003916B1F0E4E03E1629F174C0D09289007A
:10252000C092880020930B0530930C0540930D0555
:1025300050930E0580916F00826080936F0062C09F
:10254000D0929900C09298002093160530931705F9
:102550004093180550931905809171008260809313
:10256000710050C0C092CF0020930705309308053A
:102570004093090550930A0580917200806480930E
:10258000720040C086E0D7CEEFEFCE16D104E10452
:10259000F10411F008F001CF84E0CDCE8FEFC81622
:1025A000D104E104F104C9F0C0F062E17AE780E00F
:1025B00090E0A50194010E94F31669017A01F1E00F
:1025C000CF1AD108E108F1082FEFC216D104E104B7
:1025D000F10409F020F484E00CCF83E00ACF898174
:1025E0009A81AB81BC812AE0B595A795979587958F
:1025F0002A95D1F76C017D01E1E0CE1AD108E108FE
:10260000F108F6CE0F900F900F900F90DF91CF91C1
:102610001F910F91FF90EF90DF90CF90BF90AF9000
:102620009F908F907F906F905F904F903F90089514
:102630004F925F926F927F92EF92FF920F931F9350
:10264000CF93DF93CDB7DEB7A1970FB6F894DEBF77
:102650000FBECDBF7C01FA01CB0119A2223008F4D4
:102660002AE08E010F5D1F4F422E512C612C712CE0
:10267000BF01A30192010E94D116F901CA010150C4
:1026800011096A3014F4605D01C0695CD8016C9373
:10269000232B242B252B61F7B801C7010E94090EBB
:1026A000A1960FB6F894DEBF0FBECDBFDF91CF91DC
:1026B0001F910F91FF90EF907F906F905F904F90E0
:1026C0000895DC01ED91FC910190F081E02D0994D9
:1026D0000C94090E1F920F920FB60F9211242F9394
:1026E0003F934F935F936F937F938F939F93AF939A
:1026F000BF93EF93FF9389E293E00E944C08FF9110
:10270000EF91BF91AF919F918F917F916F915F9169
:102710004F913F912F910F900FBE0F901F901895E2
:102720001F920F920FB60F9211242F938F939F93A6
:10273000EF93FF93E0913903F0913A038081E091A8
:102740003F03F091400382FD12C0908180914203CB
:102750008F5F8F7320914303821751F0E091420302
:10276000F0E0E75DFC4F958F8093420301C08081CC
:10277000FF91EF919F918F912F910F900FBE0F902E
:102780001F901895FF920F931F93CF93DF93DC0157
:1027900012962D913C911397232B09F4A3C0EC01C1
:1027A000888999890097B1F58E859F85892B09F0D5
:1027B00053C060E0CD010E943C0460E0CE010E9465
:1027C0007904EA81FB818C81E80FF11DF180009191
:1027D0002F04109130040115110569F0D801ED9115
:1027E000FC910480F581E02D6F2DC8010995F80159
:1027F00002811381F0CF8C818F5F8C83E881F98116
:102800000680F781E02DCE01DF91CF911F910F91CE
:10281000FF9009941816190614F01FEF01C011E07B
:10282000EC850E2E000CFF0BED55FE4F6081CE01A6
:102830000E943C048C85885F810F877887FF03C0E6
:102840008150886F8F5F8C8788899989811B910956
:1028500017FD9395998B888B8E859F85009701F145
:1028600014F41FEF01C011E0ED850E2E000CFF0BDC
:10287000ED55FE4F6081CE010E9479048D85885F01
:10288000810F877887FF03C08150886F8F5F8D87A6
:102890008E859F85811B910917FD93959F878E8754
:1028A0008D81882329F01F861E86198A188A1AC0EE
:1028B000EA85FB8520853185032E000C440B550BE2
:1028C00060E472E48FE090E00E94F316223031055C
:1028D00048F0220F331F220F331F25503109C90141
:1028E0000197F1F7DF91CF911F910F91FF9008951C
:1028F00006970C94C213CF92DF92EF92FF920F9340
:102900001F93CF93DF931F92CDB7DEB7182F062FFB
:10291000E42E862F880F8E5F99830E94910E83E0AC
:102920000E94910EF12EC12E9981D92E8C2D8F19D6
:10293000801798F4F601E7FE02C0849101C08081FF
:102940000E94910E182F80E00E94910E8123FFEFCC
:10295000CF1ADF0A8111EACF01C081E00F90DF9129
:10296000CF911F910F91FF90EF90DF90CF9008953E
:10297000EDEAF4E01382128288EE93E0A0E0B0E08A
:1029800084839583A683B7832AEB31E03183208348
:102990002FEF3FEF35872487E9E2F3E013821282BD
:1029A00084839583A683B7838AEC91E091838083A7
:1029B0008DEC90E0958784878CEC90E097878687F4
:1029C00088EC90E0918B808B89EC90E0938B828BEC
:1029D0008AEC90E0958B848B8EEC90E0978B868BC5
:1029E000118E128E138E148EE6ECF3E01382128297
:1029F0008AED91E091838083EDE8F4E01382128206
:102A0000148215821186108682E792E0918380837A
:102A100080E892E0978386838FEA92E093878287AB
:102A200017861686118A108A14861586EAE6F4E05F
:102A300013821282148215821682178210861186E2
:102A4000128613861486158616861786108A118AB2
:102A5000128A138A148A158A168A178A108E118E82
:102A6000128E138E148E158E168E178E84E592E0BC
:102A70009183808381EA92E091A380A3ECE3F4E068
:102A80001382128214821582168217821086118692
:102A9000128613861486158616861786108A118A62
:102AA000128A138A148A158A168A178A108E118E32
:102AB000128E138E148E158E168E178E88E292E06B
:102AC000918380838BE992E091A380A315A6E7E32D
:102AD000F4E0138212828EE092E0918380838AE098
:102AE0008483E1E3F4E01382128284EF91E0918326
:102AF000808386E992E0958384831092300410925B
:102B00002F041092CA030895789484B5826084BD1E
:102B100084B5816084BD85B5826085BD85B58160E1
:102B200085BD80916E00816080936E00109281005F
:102B3000809181008260809381008091810081601A
:102B400080938100809180008160809380008091DB
:102B500091008260809391008091910081608093C8
:102B60009100809190008160809390008091C100DD
:102B700084608093C1008091C10082608093C10015
:102B80008091C10081608093C1008091C300816009
:102B90008093C3008091C00082608093C0008091C8
:102BA000C20081608093C20080917A00846080932B
:102BB0007A0080917A00826080937A0080917A0016
:102BC000816080937A0080917A00806880937A0097
:102BD0001092280310922503109226038091D700AB
:102BE00081608093D70080EA8093D80089B58061A6
:102BF00089BD89B5826089BD09B400FEFDCF61E061
:102C000070E080E090E00E946B0F8091D8008F7C94
:102C100080618093D8008091E000807F8093E00005
:102C20008091E1008E7E8093E1008DE08093E20050
:102C3000559A209A5D982898EEEFFFE78591949138
:102C40008B3F9C4D19F481E080932403E0918D0427
:102C5000F0918E040190F081E02D8DE894E00995CB
:102C6000E0916A04F0916B040688F789E02D8AE60A
:102C700094E00995E0913C04F0913D040688F789C1
:102C8000E02D8CE394E0099561E080913B040E9483
:102C90002F0F67E374E08FE294E00E946D0824E652
:102CA00030E040E050E06BE572E180913B040E942F
:102CB0005410E0913504F091360461E080810E9467
:102CC0002F0FE0913504F091360461E081810E947C
:102CD0002F0FE0913504F091360461E082810E946B
:102CE0002F0FE0913504F091360461E083810E945A
:102CF0002F0FE0913504F091360461E084810E9449
:102D00002F0F61E374E08FE294E00E946D0841E0D0
:102D100050E060E070E08AEC93E00E94701710923F
:102D2000CA0366EC73E08FE294E00E946D080E9493
:102D3000950D6B017C01C0912F04D0913004209738
:102D400069F0E881F9810190F081E02DB701A601D9
:102D5000CE0109950A80DB81C02DF1CF80918F04CF
:102D600090919004892B31F46AE070E080E090E06B
:102D70000E946B0F0E942101DACFAA1BBB1B51E1FD
:102D800007C0AA1FBB1FA617B70710F0A61BB70BDB
:102D9000881F991F5A95A9F780959095BC01CD0180
:102DA0000895A1E21A2EAA1BBB1BFD010DC0AA1F8C
:102DB000BB1FEE1FFF1FA217B307E407F50720F0A4
:102DC000A21BB30BE40BF50B661F771F881F991F1F
:102DD0001A9469F760957095809590959B01AC0168
:102DE000BD01CF010895052E97FB1EF400940E94AB
:102DF0000A1757FD07D00E94D11607FC03D04EF4E6
:102E00000C940A1750954095309521953F4F4F4FA0
:102E10005F4F089590958095709561957F4F8F4F86
:102E20009F4F0895EE0FFF1F0590F491E02D099438
:102E30000E942B17A59F900DB49F900DA49F800D0D
:102E4000911D11240895B7FF0C9418170E941817AC
:102E5000821B930B0895A29FB001B39FC001A39F53
:102E6000700D811D1124911DB29F700D811D1124C3
:102E7000911D089581E090E0F8940C949817FC015E
:102E80008191861721F08823D9F7992708953197E2
:102E9000CF010895FC0188279927E89421912032D9
:102EA000E9F3293010F02E30C8F32B3241F02D32E7
:102EB00039F4689404C00E946817820F911D219113
:102EC00020532A30C0F31EF4909581959F4F0895AA
:102ED0007AE0979F902D879F802D910D1124089562
:102EE000DC01CB01FC01F999FECF06C0F2BDE1BDCA
:102EF000F89A319600B40D9241505040B8F70895B9
:102F0000DC01CB0103C02D910E948B174150504032
:102F1000D0F70895262FF999FECF1FBA92BD81BD33
:102F200020BD0FB6F894FA9AF99A0FBE019608954B
:042F3000F894FFCF43
:102F3400FFFFFFFF00E1000000000000FFB801D226
:102F440001EE010B022A024B026E029302BA02E462
:102F54000210033F037003A403DB03160454049616
:102F640004DC0426057405C7051F067D06E0064833
:102F740007B7072D08A9082D09B9094D0AE90A8FD1
:102F84000B3F0CFA0CC00D910E6F0F5A1052115AD0
:102F94001272139A14D3151F177F18F419801B2269
:102FA4001DDE1EB420A522B524E4263429A72B3F18
:102FB4002EFF30E9330037453ABC3D68414B456A42
:102FC40049C84D68524E577F5CFF614D0A5211C08B
:102FD4000DA90801030206040C08090102030400F8
:102FE400C18081000000000000008409010AE70993
:102FF400A509C3099A0900000000280EBA0D15019D
:10300400E50DF90D6F0E00000000C103CB03CA03E8
:10301400C903C8038C05C603BA03C0035E054E0585
:1030240000000000C1030304F603C903C803C70377
:10303400C603190416041304100400000000C1039D
:10304400D104CA03C903C803C703C603C503C40321
:10305400D304C203000000007303CB03CA03C903F3
:10306400C803C703C603C503C403C303C203DA0802
:10307400E407F706E006B00786072A070E074607A7
:10308400000000007303CB03CA03C903C803C703CA
:10309400C603C503C403C303C203C6085302000026
:1030A40000007F0833021F027201C213FAFF0000FE
:1030B4007814CB03CA03C903C803C703C603C503F3
:1030C400C403C303C203121514130D29038025007E
:1030D40000190100025C030103AB022A030000098A
:1030E40008070605040302E803CA0600043A643D1F
:1030F40031362C6F3D362C623D3830303A662C34F4
:10310400702C662C34702C662C34702C662C347025
:103114002C632C34702C632C34702C632C34702C62
:10312400632C006E6573776772004E4553574752A0
:10313400005052473A00524553455400454E44000E
:1031440041424F5254454420002F00474F20000075
:00000001FF
